{
  "contractName": "BigDivMock",
  "abi": [
    {
      "constant": true,
      "inputs": [
        {
          "internalType": "uint256",
          "name": "_numA",
          "type": "uint256"
        },
        {
          "internalType": "uint256",
          "name": "_numB",
          "type": "uint256"
        },
        {
          "internalType": "uint256",
          "name": "_den",
          "type": "uint256"
        }
      ],
      "name": "bigDiv2x1",
      "outputs": [
        {
          "internalType": "uint256",
          "name": "",
          "type": "uint256"
        }
      ],
      "payable": false,
      "stateMutability": "pure",
      "type": "function"
    },
    {
      "constant": true,
      "inputs": [
        {
          "internalType": "uint256",
          "name": "_numA",
          "type": "uint256"
        },
        {
          "internalType": "uint256",
          "name": "_numB",
          "type": "uint256"
        },
        {
          "internalType": "uint256",
          "name": "_den",
          "type": "uint256"
        }
      ],
      "name": "bigDiv2x1RoundUp",
      "outputs": [
        {
          "internalType": "uint256",
          "name": "",
          "type": "uint256"
        }
      ],
      "payable": false,
      "stateMutability": "pure",
      "type": "function"
    },
    {
      "constant": true,
      "inputs": [
        {
          "internalType": "uint256",
          "name": "_numA",
          "type": "uint256"
        },
        {
          "internalType": "uint256",
          "name": "_numB",
          "type": "uint256"
        },
        {
          "internalType": "uint256",
          "name": "_denA",
          "type": "uint256"
        },
        {
          "internalType": "uint256",
          "name": "_denB",
          "type": "uint256"
        }
      ],
      "name": "bigDiv2x2",
      "outputs": [
        {
          "internalType": "uint256",
          "name": "",
          "type": "uint256"
        }
      ],
      "payable": false,
      "stateMutability": "pure",
      "type": "function"
    }
  ],
  "bytecode": "0x608060405234801561001057600080fd5b506105a6806100206000396000f3fe608060405234801561001057600080fd5b50600436106100415760003560e01c80632bab744114610046578063600caa5014610087578063a1d52ace146100b0575b600080fd5b6100756004803603608081101561005c57600080fd5b50803590602081013590604081013590606001356100d9565b60408051918252519081900360200190f35b6100756004803603606081101561009d57600080fd5b50803590602081013590604001356100f2565b610075600480360360608110156100c657600080fd5b5080359060208101359060400135610109565b60006100e785858585610116565b90505b949350505050565b60006100ff8484846102c0565b90505b9392505050565b60006100ff848484610449565b600081836000198161012457fe5b041061013e5761013785858486026102c0565b90506100ea565b841580610149575083155b15610156575060006100ea565b8183818111156101665750839050825b600086886000198161017457fe5b041061019f575086860281818161018757fe5b04905082818161019357fe5b0493506100ea92505050565b8688818111156101af5750889050875b60008483816101ba57fe5b049050630bebc2008111156101e1576101d48183886102c0565b96505050505050506100ea565b506001600160801b03600019838101829004600190810192848301040190829082908161020a57fe5b041061028557810280848161021b57fe5b049450630bebc2008511156102855761023a858463ffffffff61049416565b945085858161024557fe5b049450600085118015610263575080856000198161025f57fe5b0410155b15610285579384029386858161027557fe5b0497506100ea9650505050505050565b5050600160801b85046001600160801b03850481026102b08185816102a657fe5b04846000196102c0565b9c9b505050505050505050505050565b60008315806102cd575082155b156102da57506000610102565b60008385600019816102e857fe5b041061030557508383028281816102fb57fe5b0491506101029050565b8385818111156103155750859050845b84828161031e57fe5b0492506305f5e1008311156103485761033d838263ffffffff61049416565b935061010292505050565b60001981016001600160801b038104600101905060001983016001600160801b038104600101905080826000198161037c57fe5b04106103ec579081029081848161038f57fe5b049450630bebc2008511156103ec576103ae858463ffffffff61049416565b94505060001986018181816103bf57fe5b0490506103d381600163ffffffff6104f616565b90508085816103de57fe5b049550610102945050505050565b60016001600160801b0360001985010401915081838161040857fe5b04945050600019860181818161041a57fe5b04600101905080848161042957fe5b04905061043c858263ffffffff61049416565b9998505050505050505050565b6000806104578585856102c0565b905080610468576001915050610102565b60016305f5e10060001983010401811981111561048b5760001992505050610102565b01949350505050565b6000826104a3575060006104f0565b828202828482816104b057fe5b04146104ed5760405162461bcd60e51b81526004018080602001828103825260218152602001806105516021913960400191505060405180910390fd5b90505b92915050565b6000828201838110156104ed576040805162461bcd60e51b815260206004820152601b60248201527f536166654d6174683a206164646974696f6e206f766572666c6f770000000000604482015290519081900360640190fdfe536166654d6174683a206d756c7469706c69636174696f6e206f766572666c6f77a265627a7a7231582047c4f73c4173b74da3eb3e4e7c43bffc66c5eea2a91c5ecdea3cc0b235ee766064736f6c634300050e0032",
  "source": "pragma solidity ^0.5.0;\n\n\nimport \"../math/BigDiv.sol\";\n\n/**\n * @title Used for testing only.\n */\ncontract BigDivMock\n{\n  function bigDiv2x1(\n    uint256 _numA,\n    uint256 _numB,\n    uint256 _den\n  ) public pure\n    returns(uint256)\n  {\n    return BigDiv.bigDiv2x1(_numA, _numB, _den);\n  }\n\n  function bigDiv2x1RoundUp(\n    uint256 _numA,\n    uint256 _numB,\n    uint256 _den\n  ) public pure\n    returns(uint256)\n  {\n    return BigDiv.bigDiv2x1RoundUp(_numA, _numB, _den);\n  }\n\n  function bigDiv2x2(\n    uint256 _numA,\n    uint256 _numB,\n    uint256 _denA,\n    uint256 _denB\n  ) public pure\n    returns (uint256)\n  {\n    return BigDiv.bigDiv2x2(_numA, _numB, _denA, _denB);\n  }\n}\n",
  "sourcePath": "/home/nick/git/c-org/contracts/test-artifacts/BigDivMock.sol",
  "compiler": {
    "name": "solc",
    "version": "0.5.14+commit.01f1aaa4.Emscripten.clang"
  },
  "schemaVersion": "3.0.19",
  "updatedAt": "2019-12-09T20:14:07.411Z",
  "devdoc": {
    "methods": {},
    "title": "Used for testing only."
  },
  "userdoc": {
    "methods": {}
  }
}