{
  "contractName": "DecentralizedAutonomousTrust",
  "abi": [
    {
      "anonymous": false,
      "inputs": [
        {
          "indexed": true,
          "internalType": "address",
          "name": "owner",
          "type": "address"
        },
        {
          "indexed": true,
          "internalType": "address",
          "name": "spender",
          "type": "address"
        },
        {
          "indexed": false,
          "internalType": "uint256",
          "name": "value",
          "type": "uint256"
        }
      ],
      "name": "Approval",
      "type": "event"
    },
    {
      "anonymous": false,
      "inputs": [
        {
          "indexed": true,
          "internalType": "address",
          "name": "_from",
          "type": "address"
        },
        {
          "indexed": false,
          "internalType": "uint256",
          "name": "_fairValue",
          "type": "uint256"
        }
      ],
      "name": "Burn",
      "type": "event"
    },
    {
      "anonymous": false,
      "inputs": [
        {
          "indexed": true,
          "internalType": "address",
          "name": "_from",
          "type": "address"
        },
        {
          "indexed": true,
          "internalType": "address",
          "name": "_to",
          "type": "address"
        },
        {
          "indexed": false,
          "internalType": "uint256",
          "name": "_currencyValue",
          "type": "uint256"
        },
        {
          "indexed": false,
          "internalType": "uint256",
          "name": "_fairValue",
          "type": "uint256"
        }
      ],
      "name": "Buy",
      "type": "event"
    },
    {
      "anonymous": false,
      "inputs": [
        {
          "indexed": false,
          "internalType": "uint256",
          "name": "_exitFee",
          "type": "uint256"
        }
      ],
      "name": "Close",
      "type": "event"
    },
    {
      "anonymous": false,
      "inputs": [
        {
          "indexed": true,
          "internalType": "address",
          "name": "_from",
          "type": "address"
        },
        {
          "indexed": true,
          "internalType": "address",
          "name": "_to",
          "type": "address"
        },
        {
          "indexed": false,
          "internalType": "uint256",
          "name": "_currencyValue",
          "type": "uint256"
        },
        {
          "indexed": false,
          "internalType": "uint256",
          "name": "_fairValue",
          "type": "uint256"
        }
      ],
      "name": "Pay",
      "type": "event"
    },
    {
      "anonymous": false,
      "inputs": [
        {
          "indexed": true,
          "internalType": "address",
          "name": "_from",
          "type": "address"
        },
        {
          "indexed": true,
          "internalType": "address",
          "name": "_to",
          "type": "address"
        },
        {
          "indexed": false,
          "internalType": "uint256",
          "name": "_currencyValue",
          "type": "uint256"
        },
        {
          "indexed": false,
          "internalType": "uint256",
          "name": "_fairValue",
          "type": "uint256"
        }
      ],
      "name": "Sell",
      "type": "event"
    },
    {
      "anonymous": false,
      "inputs": [
        {
          "indexed": false,
          "internalType": "uint256",
          "name": "_previousState",
          "type": "uint256"
        },
        {
          "indexed": false,
          "internalType": "uint256",
          "name": "_newState",
          "type": "uint256"
        }
      ],
      "name": "StateChange",
      "type": "event"
    },
    {
      "anonymous": false,
      "inputs": [
        {
          "indexed": true,
          "internalType": "address",
          "name": "from",
          "type": "address"
        },
        {
          "indexed": true,
          "internalType": "address",
          "name": "to",
          "type": "address"
        },
        {
          "indexed": false,
          "internalType": "uint256",
          "name": "value",
          "type": "uint256"
        }
      ],
      "name": "Transfer",
      "type": "event"
    },
    {
      "anonymous": false,
      "inputs": [
        {
          "indexed": false,
          "internalType": "address",
          "name": "_whitelistAddress",
          "type": "address"
        },
        {
          "indexed": true,
          "internalType": "address",
          "name": "_beneficiary",
          "type": "address"
        },
        {
          "indexed": true,
          "internalType": "address",
          "name": "_control",
          "type": "address"
        },
        {
          "indexed": true,
          "internalType": "address",
          "name": "_feeCollector",
          "type": "address"
        },
        {
          "indexed": false,
          "internalType": "bool",
          "name": "_autoBurn",
          "type": "bool"
        },
        {
          "indexed": false,
          "internalType": "uint256",
          "name": "_revenueCommitmentBasisPoints",
          "type": "uint256"
        },
        {
          "indexed": false,
          "internalType": "uint256",
          "name": "_feeBasisPoints",
          "type": "uint256"
        },
        {
          "indexed": false,
          "internalType": "uint256",
          "name": "_minInvestment",
          "type": "uint256"
        },
        {
          "indexed": false,
          "internalType": "uint256",
          "name": "_openUntilAtLeast",
          "type": "uint256"
        }
      ],
      "name": "UpdateConfig",
      "type": "event"
    },
    {
      "payable": true,
      "stateMutability": "payable",
      "type": "fallback"
    },
    {
      "constant": true,
      "inputs": [
        {
          "internalType": "address",
          "name": "owner",
          "type": "address"
        },
        {
          "internalType": "address",
          "name": "spender",
          "type": "address"
        }
      ],
      "name": "allowance",
      "outputs": [
        {
          "internalType": "uint256",
          "name": "",
          "type": "uint256"
        }
      ],
      "payable": false,
      "stateMutability": "view",
      "type": "function"
    },
    {
      "constant": false,
      "inputs": [
        {
          "internalType": "address",
          "name": "spender",
          "type": "address"
        },
        {
          "internalType": "uint256",
          "name": "amount",
          "type": "uint256"
        }
      ],
      "name": "approve",
      "outputs": [
        {
          "internalType": "bool",
          "name": "",
          "type": "bool"
        }
      ],
      "payable": false,
      "stateMutability": "nonpayable",
      "type": "function"
    },
    {
      "constant": true,
      "inputs": [],
      "name": "autoBurn",
      "outputs": [
        {
          "internalType": "bool",
          "name": "",
          "type": "bool"
        }
      ],
      "payable": false,
      "stateMutability": "view",
      "type": "function"
    },
    {
      "constant": true,
      "inputs": [
        {
          "internalType": "address",
          "name": "account",
          "type": "address"
        }
      ],
      "name": "balanceOf",
      "outputs": [
        {
          "internalType": "uint256",
          "name": "",
          "type": "uint256"
        }
      ],
      "payable": false,
      "stateMutability": "view",
      "type": "function"
    },
    {
      "constant": true,
      "inputs": [],
      "name": "beneficiary",
      "outputs": [
        {
          "internalType": "address payable",
          "name": "",
          "type": "address"
        }
      ],
      "payable": false,
      "stateMutability": "view",
      "type": "function"
    },
    {
      "constant": true,
      "inputs": [],
      "name": "burnedSupply",
      "outputs": [
        {
          "internalType": "uint256",
          "name": "",
          "type": "uint256"
        }
      ],
      "payable": false,
      "stateMutability": "view",
      "type": "function"
    },
    {
      "constant": true,
      "inputs": [],
      "name": "buySlopeDen",
      "outputs": [
        {
          "internalType": "uint256",
          "name": "",
          "type": "uint256"
        }
      ],
      "payable": false,
      "stateMutability": "view",
      "type": "function"
    },
    {
      "constant": true,
      "inputs": [],
      "name": "buySlopeNum",
      "outputs": [
        {
          "internalType": "uint256",
          "name": "",
          "type": "uint256"
        }
      ],
      "payable": false,
      "stateMutability": "view",
      "type": "function"
    },
    {
      "constant": true,
      "inputs": [],
      "name": "control",
      "outputs": [
        {
          "internalType": "address",
          "name": "",
          "type": "address"
        }
      ],
      "payable": false,
      "stateMutability": "view",
      "type": "function"
    },
    {
      "constant": true,
      "inputs": [],
      "name": "currency",
      "outputs": [
        {
          "internalType": "contract IERC20",
          "name": "",
          "type": "address"
        }
      ],
      "payable": false,
      "stateMutability": "view",
      "type": "function"
    },
    {
      "constant": true,
      "inputs": [],
      "name": "decimals",
      "outputs": [
        {
          "internalType": "uint8",
          "name": "",
          "type": "uint8"
        }
      ],
      "payable": false,
      "stateMutability": "view",
      "type": "function"
    },
    {
      "constant": false,
      "inputs": [
        {
          "internalType": "address",
          "name": "spender",
          "type": "address"
        },
        {
          "internalType": "uint256",
          "name": "subtractedValue",
          "type": "uint256"
        }
      ],
      "name": "decreaseAllowance",
      "outputs": [
        {
          "internalType": "bool",
          "name": "",
          "type": "bool"
        }
      ],
      "payable": false,
      "stateMutability": "nonpayable",
      "type": "function"
    },
    {
      "constant": true,
      "inputs": [],
      "name": "feeBasisPoints",
      "outputs": [
        {
          "internalType": "uint256",
          "name": "",
          "type": "uint256"
        }
      ],
      "payable": false,
      "stateMutability": "view",
      "type": "function"
    },
    {
      "constant": true,
      "inputs": [],
      "name": "feeCollector",
      "outputs": [
        {
          "internalType": "address payable",
          "name": "",
          "type": "address"
        }
      ],
      "payable": false,
      "stateMutability": "view",
      "type": "function"
    },
    {
      "constant": false,
      "inputs": [
        {
          "internalType": "address",
          "name": "spender",
          "type": "address"
        },
        {
          "internalType": "uint256",
          "name": "addedValue",
          "type": "uint256"
        }
      ],
      "name": "increaseAllowance",
      "outputs": [
        {
          "internalType": "bool",
          "name": "",
          "type": "bool"
        }
      ],
      "payable": false,
      "stateMutability": "nonpayable",
      "type": "function"
    },
    {
      "constant": true,
      "inputs": [],
      "name": "initGoal",
      "outputs": [
        {
          "internalType": "uint256",
          "name": "",
          "type": "uint256"
        }
      ],
      "payable": false,
      "stateMutability": "view",
      "type": "function"
    },
    {
      "constant": true,
      "inputs": [
        {
          "internalType": "address",
          "name": "",
          "type": "address"
        }
      ],
      "name": "initInvestors",
      "outputs": [
        {
          "internalType": "uint256",
          "name": "",
          "type": "uint256"
        }
      ],
      "payable": false,
      "stateMutability": "view",
      "type": "function"
    },
    {
      "constant": true,
      "inputs": [],
      "name": "initReserve",
      "outputs": [
        {
          "internalType": "uint256",
          "name": "",
          "type": "uint256"
        }
      ],
      "payable": false,
      "stateMutability": "view",
      "type": "function"
    },
    {
      "constant": true,
      "inputs": [],
      "name": "investmentReserveBasisPoints",
      "outputs": [
        {
          "internalType": "uint256",
          "name": "",
          "type": "uint256"
        }
      ],
      "payable": false,
      "stateMutability": "view",
      "type": "function"
    },
    {
      "constant": true,
      "inputs": [],
      "name": "minInvestment",
      "outputs": [
        {
          "internalType": "uint256",
          "name": "",
          "type": "uint256"
        }
      ],
      "payable": false,
      "stateMutability": "view",
      "type": "function"
    },
    {
      "constant": true,
      "inputs": [],
      "name": "name",
      "outputs": [
        {
          "internalType": "string",
          "name": "",
          "type": "string"
        }
      ],
      "payable": false,
      "stateMutability": "view",
      "type": "function"
    },
    {
      "constant": true,
      "inputs": [],
      "name": "openUntilAtLeast",
      "outputs": [
        {
          "internalType": "uint256",
          "name": "",
          "type": "uint256"
        }
      ],
      "payable": false,
      "stateMutability": "view",
      "type": "function"
    },
    {
      "constant": true,
      "inputs": [],
      "name": "revenueCommitmentBasisPoints",
      "outputs": [
        {
          "internalType": "uint256",
          "name": "",
          "type": "uint256"
        }
      ],
      "payable": false,
      "stateMutability": "view",
      "type": "function"
    },
    {
      "constant": true,
      "inputs": [],
      "name": "state",
      "outputs": [
        {
          "internalType": "uint256",
          "name": "",
          "type": "uint256"
        }
      ],
      "payable": false,
      "stateMutability": "view",
      "type": "function"
    },
    {
      "constant": true,
      "inputs": [],
      "name": "symbol",
      "outputs": [
        {
          "internalType": "string",
          "name": "",
          "type": "string"
        }
      ],
      "payable": false,
      "stateMutability": "view",
      "type": "function"
    },
    {
      "constant": true,
      "inputs": [],
      "name": "totalSupply",
      "outputs": [
        {
          "internalType": "uint256",
          "name": "",
          "type": "uint256"
        }
      ],
      "payable": false,
      "stateMutability": "view",
      "type": "function"
    },
    {
      "constant": false,
      "inputs": [
        {
          "internalType": "address",
          "name": "recipient",
          "type": "address"
        },
        {
          "internalType": "uint256",
          "name": "amount",
          "type": "uint256"
        }
      ],
      "name": "transfer",
      "outputs": [
        {
          "internalType": "bool",
          "name": "",
          "type": "bool"
        }
      ],
      "payable": false,
      "stateMutability": "nonpayable",
      "type": "function"
    },
    {
      "constant": false,
      "inputs": [
        {
          "internalType": "address",
          "name": "sender",
          "type": "address"
        },
        {
          "internalType": "address",
          "name": "recipient",
          "type": "address"
        },
        {
          "internalType": "uint256",
          "name": "amount",
          "type": "uint256"
        }
      ],
      "name": "transferFrom",
      "outputs": [
        {
          "internalType": "bool",
          "name": "",
          "type": "bool"
        }
      ],
      "payable": false,
      "stateMutability": "nonpayable",
      "type": "function"
    },
    {
      "constant": true,
      "inputs": [],
      "name": "whitelist",
      "outputs": [
        {
          "internalType": "contract IWhitelist",
          "name": "",
          "type": "address"
        }
      ],
      "payable": false,
      "stateMutability": "view",
      "type": "function"
    },
    {
      "constant": true,
      "inputs": [],
      "name": "buybackReserve",
      "outputs": [
        {
          "internalType": "uint256",
          "name": "",
          "type": "uint256"
        }
      ],
      "payable": false,
      "stateMutability": "view",
      "type": "function"
    },
    {
      "constant": false,
      "inputs": [
        {
          "internalType": "uint256",
          "name": "_initReserve",
          "type": "uint256"
        },
        {
          "internalType": "address",
          "name": "_currencyAddress",
          "type": "address"
        },
        {
          "internalType": "uint256",
          "name": "_initGoal",
          "type": "uint256"
        },
        {
          "internalType": "uint256",
          "name": "_buySlopeNum",
          "type": "uint256"
        },
        {
          "internalType": "uint256",
          "name": "_buySlopeDen",
          "type": "uint256"
        },
        {
          "internalType": "uint256",
          "name": "_investmentReserveBasisPoints",
          "type": "uint256"
        },
        {
          "internalType": "string",
          "name": "_name",
          "type": "string"
        },
        {
          "internalType": "string",
          "name": "_symbol",
          "type": "string"
        }
      ],
      "name": "initialize",
      "outputs": [],
      "payable": false,
      "stateMutability": "nonpayable",
      "type": "function"
    },
    {
      "constant": false,
      "inputs": [
        {
          "internalType": "string",
          "name": "name",
          "type": "string"
        },
        {
          "internalType": "string",
          "name": "symbol",
          "type": "string"
        },
        {
          "internalType": "uint8",
          "name": "decimals",
          "type": "uint8"
        }
      ],
      "name": "initialize",
      "outputs": [],
      "payable": false,
      "stateMutability": "nonpayable",
      "type": "function"
    },
    {
      "constant": false,
      "inputs": [
        {
          "internalType": "address",
          "name": "_whitelistAddress",
          "type": "address"
        },
        {
          "internalType": "address payable",
          "name": "_beneficiary",
          "type": "address"
        },
        {
          "internalType": "address",
          "name": "_control",
          "type": "address"
        },
        {
          "internalType": "address payable",
          "name": "_feeCollector",
          "type": "address"
        },
        {
          "internalType": "uint256",
          "name": "_feeBasisPoints",
          "type": "uint256"
        },
        {
          "internalType": "bool",
          "name": "_autoBurn",
          "type": "bool"
        },
        {
          "internalType": "uint256",
          "name": "_revenueCommitmentBasisPoints",
          "type": "uint256"
        },
        {
          "internalType": "uint256",
          "name": "_minInvestment",
          "type": "uint256"
        },
        {
          "internalType": "uint256",
          "name": "_openUntilAtLeast",
          "type": "uint256"
        }
      ],
      "name": "updateConfig",
      "outputs": [],
      "payable": false,
      "stateMutability": "nonpayable",
      "type": "function"
    },
    {
      "constant": false,
      "inputs": [
        {
          "internalType": "uint256",
          "name": "_amount",
          "type": "uint256"
        }
      ],
      "name": "burn",
      "outputs": [],
      "payable": false,
      "stateMutability": "nonpayable",
      "type": "function"
    },
    {
      "constant": true,
      "inputs": [
        {
          "internalType": "uint256",
          "name": "_currencyValue",
          "type": "uint256"
        }
      ],
      "name": "estimateBuyValue",
      "outputs": [
        {
          "internalType": "uint256",
          "name": "",
          "type": "uint256"
        }
      ],
      "payable": false,
      "stateMutability": "view",
      "type": "function"
    },
    {
      "constant": false,
      "inputs": [
        {
          "internalType": "address",
          "name": "_to",
          "type": "address"
        },
        {
          "internalType": "uint256",
          "name": "_currencyValue",
          "type": "uint256"
        },
        {
          "internalType": "uint256",
          "name": "_minTokensBought",
          "type": "uint256"
        }
      ],
      "name": "buy",
      "outputs": [],
      "payable": true,
      "stateMutability": "payable",
      "type": "function"
    },
    {
      "constant": true,
      "inputs": [
        {
          "internalType": "uint256",
          "name": "_quantityToSell",
          "type": "uint256"
        }
      ],
      "name": "estimateSellValue",
      "outputs": [
        {
          "internalType": "uint256",
          "name": "",
          "type": "uint256"
        }
      ],
      "payable": false,
      "stateMutability": "view",
      "type": "function"
    },
    {
      "constant": false,
      "inputs": [
        {
          "internalType": "address payable",
          "name": "_to",
          "type": "address"
        },
        {
          "internalType": "uint256",
          "name": "_quantityToSell",
          "type": "uint256"
        },
        {
          "internalType": "uint256",
          "name": "_minCurrencyReturned",
          "type": "uint256"
        }
      ],
      "name": "sell",
      "outputs": [],
      "payable": false,
      "stateMutability": "nonpayable",
      "type": "function"
    },
    {
      "constant": true,
      "inputs": [
        {
          "internalType": "uint256",
          "name": "_currencyValue",
          "type": "uint256"
        }
      ],
      "name": "estimatePayValue",
      "outputs": [
        {
          "internalType": "uint256",
          "name": "",
          "type": "uint256"
        }
      ],
      "payable": false,
      "stateMutability": "view",
      "type": "function"
    },
    {
      "constant": false,
      "inputs": [
        {
          "internalType": "address",
          "name": "_to",
          "type": "address"
        },
        {
          "internalType": "uint256",
          "name": "_currencyValue",
          "type": "uint256"
        }
      ],
      "name": "pay",
      "outputs": [],
      "payable": true,
      "stateMutability": "payable",
      "type": "function"
    },
    {
      "constant": true,
      "inputs": [
        {
          "internalType": "uint256",
          "name": "_msgValue",
          "type": "uint256"
        }
      ],
      "name": "estimateExitFee",
      "outputs": [
        {
          "internalType": "uint256",
          "name": "",
          "type": "uint256"
        }
      ],
      "payable": false,
      "stateMutability": "view",
      "type": "function"
    },
    {
      "constant": false,
      "inputs": [],
      "name": "close",
      "outputs": [],
      "payable": true,
      "stateMutability": "payable",
      "type": "function"
    }
  ],
  "bytecode": "0x608060405261398c806100136000396000f3fe6080604052600436106102515760003560e01c8063736dcb1f11610139578063a9059cbb116100b6578063c415b95c1161007a578063c415b95c14610aad578063d8de658714610ac2578063dcf81d1714610ad7578063dd62ed3e14610aec578063e5a6b10f14610b27578063ff90956014610b3c57610251565b8063a9059cbb146109f4578063b12f415314610a2d578063b8606eef14610a57578063c19d93fb14610a6c578063c407687614610a8157610251565b80639df3f4f6116100fd5780639df3f4f61461094a578063a457c2d71461095f578063a59ac6dd14610998578063a63b91f4146109ca578063a71ddd25146109df57610251565b8063736dcb1f146108ae578063896d1708146108e15780638ac2c6801461090b57806393e59dc11461092057806395d89b411461093557610251565b806338af3eed116101d25780634f3424df116101965780634f3424df146107d357806355d0a1d0146107fd57806358439fa5146108125780636177e37c146108275780636a2724621461083c57806370a082311461087b57610251565b806338af3eed146106c857806339509351146106f957806342966c6814610732578063438f45a31461075c57806343d726d6146107cb57610251565b806323b872dd1161021957806323b872dd1461060657806326315438146106495780632e872bb31461065e578063313ce5671461068857806335e5cc31146106b357610251565b806306fdde0314610269578063095ea7b3146102f35780631624f6c61461034057806318160ddd1461047b57806321dfb633146104a2575b61025d34346000610b51565b6102673334610c48565b005b34801561027557600080fd5b5061027e610e0e565b6040805160208082528351818301528351919283929083019185019080838360005b838110156102b85781810151838201526020016102a0565b50505050905090810190601f1680156102e55780820380516001836020036101000a031916815260200191505b509250505060405180910390f35b3480156102ff57600080fd5b5061032c6004803603604081101561031657600080fd5b506001600160a01b038135169060200135610ea5565b604080519115158252519081900360200190f35b34801561034c57600080fd5b506102676004803603606081101561036357600080fd5b810190602081018135600160201b81111561037d57600080fd5b82018360208201111561038f57600080fd5b803590602001918460018302840111600160201b831117156103b057600080fd5b91908080601f0160208091040260200160405190810160405280939291908181526020018383808284376000920191909152509295949360208101935035915050600160201b81111561040257600080fd5b82018360208201111561041457600080fd5b803590602001918460018302840111600160201b8311171561043557600080fd5b91908080601f0160208091040260200160405190810160405280939291908181526020018383808284376000920191909152509295505050903560ff169150610ec39050565b34801561048757600080fd5b50610490610f9f565b60408051918252519081900360200190f35b3480156104ae57600080fd5b5061026760048036036101008110156104c657600080fd5b8135916001600160a01b036020820135169160408201359160608101359160808201359160a08101359181019060e0810160c0820135600160201b81111561050d57600080fd5b82018360208201111561051f57600080fd5b803590602001918460018302840111600160201b8311171561054057600080fd5b91908080601f0160208091040260200160405190810160405280939291908181526020018383808284376000920191909152509295949360208101935035915050600160201b81111561059257600080fd5b8201836020820111156105a457600080fd5b803590602001918460018302840111600160201b831117156105c557600080fd5b91908080601f016020809104026020016040519081016040528093929190818152602001838380828437600092019190915250929550610fa5945050505050565b34801561061257600080fd5b5061032c6004803603606081101561062957600080fd5b506001600160a01b038135811691602081013590911690604001356112b4565b34801561065557600080fd5b50610490611342565b34801561066a57600080fd5b506104906004803603602081101561068157600080fd5b5035611348565b34801561069457600080fd5b5061069d6114c5565b6040805160ff9092168252519081900360200190f35b3480156106bf57600080fd5b506104906114ce565b3480156106d457600080fd5b506106dd6114d4565b604080516001600160a01b039092168252519081900360200190f35b34801561070557600080fd5b5061032c6004803603604081101561071c57600080fd5b506001600160a01b0381351690602001356114e8565b34801561073e57600080fd5b506102676004803603602081101561075557600080fd5b503561153c565b34801561076857600080fd5b50610267600480360361012081101561078057600080fd5b506001600160a01b0381358116916020810135821691604082013581169160608101359091169060808101359060a081013515159060c08101359060e081013590610100013561154b565b6102676119d6565b3480156107df57600080fd5b50610490600480360360208110156107f657600080fd5b5035611b79565b34801561080957600080fd5b50610490611bf1565b34801561081e57600080fd5b50610490611bf7565b34801561083357600080fd5b50610490611bfd565b34801561084857600080fd5b506102676004803603606081101561085f57600080fd5b506001600160a01b038135169060208101359060400135611c03565b34801561088757600080fd5b506104906004803603602081101561089e57600080fd5b50356001600160a01b0316611dcb565b3480156108ba57600080fd5b50610490600480360360208110156108d157600080fd5b50356001600160a01b0316611de6565b3480156108ed57600080fd5b506104906004803603602081101561090457600080fd5b5035611df8565b34801561091757600080fd5b50610490611e79565b34801561092c57600080fd5b506106dd611e7f565b34801561094157600080fd5b5061027e611e8e565b34801561095657600080fd5b50610490611eef565b34801561096b57600080fd5b5061032c6004803603604081101561098257600080fd5b506001600160a01b038135169060200135611ef5565b610267600480360360608110156109ae57600080fd5b506001600160a01b038135169060208101359060400135611f63565b3480156109d657600080fd5b5061032c61220d565b3480156109eb57600080fd5b50610490612216565b348015610a0057600080fd5b5061032c60048036036040811015610a1757600080fd5b506001600160a01b03813516906020013561221c565b348015610a3957600080fd5b5061049060048036036020811015610a5057600080fd5b5035612230565b348015610a6357600080fd5b50610490612336565b348015610a7857600080fd5b5061049061233c565b61026760048036036040811015610a9757600080fd5b506001600160a01b038135169060200135612342565b348015610ab957600080fd5b506106dd61235c565b348015610ace57600080fd5b506106dd61236b565b348015610ae357600080fd5b5061049061237a565b348015610af857600080fd5b5061049060048036036040811015610b0f57600080fd5b506001600160a01b0381358116916020013516612380565b348015610b3357600080fd5b506106dd6123ab565b348015610b4857600080fd5b506104906123ba565b60a3546001600160a01b0316610be0578015610b91576000610b79838563ffffffff61246e16565b90508015610b8b57610b8b33826124b0565b50610bdb565b818314610bdb576040805162461bcd60e51b8152602060048201526013602482015272494e434f52524543545f4d53475f56414c554560681b604482015290519081900360640190fd5b610c43565b8115610c25576040805162461bcd60e51b815260206004820152600f60248201526e0889ebe9c9ea8bea68a9c88be8aa89608b1b604482015290519081900360640190fd5b60a354610c43906001600160a01b031633308663ffffffff61259516565b505050565b60008111610c90576040805162461bcd60e51b815260206004820152601060248201526f4d495353494e475f43555252454e435960801b604482015290519081900360640190fd5b600160ad5414610cd7576040805162461bcd60e51b815260206004820152600d60248201526c494e56414c49445f535441544560981b604482015290519081900360640190fd5b6000610cee60a954836125ef90919063ffffffff16565b612710900490506000610d0083611b79565b9050836001600160a01b038116610d285750609f5461010090046001600160a01b0316610d4c565b610d3460008684612648565b15610d4c5750609f5461010090046001600160a01b03165b609f54610d699061010090046001600160a01b03168486036126ee565b8115610dbf57610d798183612730565b609f546001600160a01b0382811661010090920416148015610d9d5750609f5460ff165b15610dbf57609f54610dbf9061010090046001600160a01b031683600061284b565b604080518581526020810184905281516001600160a01b0388169233927f0849372be021f4dce74a8a4cc15fcfaa23fdcfa92ae99fa045f6cdf0c0836436929081900390910190a35050505050565b60688054604080516020601f6002600019610100600188161502019095169490940493840181900481028201810190925282815260609390929091830182828015610e9a5780601f10610e6f57610100808354040283529160200191610e9a565b820191906000526020600020905b815481529060010190602001808311610e7d57829003601f168201915b505050505090505b90565b6000610eb9610eb261298c565b8484612990565b5060015b92915050565b600054610100900460ff1680610edc5750610edc612a7c565b80610eea575060005460ff16155b610f255760405162461bcd60e51b815260040180806020018281038252602e815260200180613849602e913960400191505060405180910390fd5b600054610100900460ff16158015610f50576000805460ff1961ff0019909116610100171660011790555b8351610f63906068906020870190613680565b508251610f77906069906020860190613680565b50606a805460ff191660ff84161790558015610f99576000805461ff00191690555b50505050565b60355490565b60a2546001600160a01b031615610ff9576040805162461bcd60e51b81526020600482015260136024820152721053149150511657d253925512505312569151606a1b604482015290519081900360640190fd5b61100582826012610ec3565b8561103f5760ad54604080519182526001602083015280516000805160206137e08339815191529281900390910190a1600160ad5561109a565b6f4b3b4ca85a86c47a098a2240000000008610611094576040805162461bcd60e51b815260206004820152600e60248201526d115610d154d4d2559157d1d3d05360921b604482015290519081900360640190fd5b60a68690555b600085116110e3576040805162461bcd60e51b8152602060048201526011602482015270494e56414c49445f534c4f50455f4e554d60781b604482015290519081900360640190fd5b6000841161112c576040805162461bcd60e51b815260206004820152601160248201527024a72b20a624a22fa9a627a822afa222a760791b604482015290519081900360640190fd5b6001600160801b03851061117d576040805162461bcd60e51b81526020600482015260136024820152724558434553534956455f534c4f50455f4e554d60681b604482015290519081900360640190fd5b6001600160801b0384106111ce576040805162461bcd60e51b815260206004820152601360248201527222ac21a2a9a9a4ab22afa9a627a822afa222a760691b604482015290519081900360640190fd5b60a085905560a1849055612710831115611221576040805162461bcd60e51b815260206004820152600f60248201526e494e56414c49445f5245534552564560881b604482015290519081900360640190fd5b60a983905568056bc75e2d6310000060ab55609f8054610100600160a81b0319163361010081029190911790915560a280546001600160a01b0319908116831790915560a48054821690921790915560a380549091166001600160a01b03891617905587156112aa5760a8889055609f546112aa9061010090046001600160a01b031689612730565b5050505050505050565b60006112c1848484612a82565b611337846112cd61298c565b61133285604051806060016040528060288152602001613821602891396001600160a01b038a1660009081526034602052604081209061130b61298c565b6001600160a01b03168152602081019190915260400160002054919063ffffffff612b9816565b612990565b5060015b9392505050565b60a65481565b600060ab5482101561135c575060006114c0565b60008060ad54141561144957826000611373610f9f565b9050600061139560a05460a654028360a85460a654010360a154600202612c2f565b9050808311156113a3578092505b6113b98360a15460020260a05460a65402612c2f565b93508583146114415760a15481870393506002026113dd818563ffffffff6125ef16565b60a65460a054919550800291506113fb90829063ffffffff6125ef16565b905061140d848263ffffffff612db816565b905060a054818161141a57fe5b04905061142681612e12565b60a6549003905061143d858263ffffffff612db816565b9450505b5050506114bd565b600160ad5414156114b357600060a854609e54611464610f9f565b0103905061147a8460a15460020260a054612c2f565b915061148e8282800263ffffffff612db816565b915061149982612e12565b91506114ab828263ffffffff61246e16565b9150506114bd565b60009150506114c0565b90505b919050565b606a5460ff1690565b60a05481565b609f5461010090046001600160a01b031681565b6000610eb96114f561298c565b84611332856034600061150661298c565b6001600160a01b03908116825260208083019390935260409182016000908120918c16815292529020549063ffffffff612db816565b6115483382600061284b565b50565b60a2546001600160a01b03163314611599576040805162461bcd60e51b815260206004820152600c60248201526b434f4e54524f4c5f4f4e4c5960a01b604482015290519081900360640190fd5b609d80546001600160a01b0319166001600160a01b038b81169190911790915587166115fe576040805162461bcd60e51b815260206004820152600f60248201526e494e56414c49445f4144445245535360881b604482015290519081900360640190fd5b60a280546001600160a01b0319166001600160a01b03898116919091179091558616611663576040805162461bcd60e51b815260206004820152600f60248201526e494e56414c49445f4144445245535360881b604482015290519081900360640190fd5b60a480546001600160a01b0319166001600160a01b038816179055609f805460ff19168515151790556127108311156116d8576040805162461bcd60e51b81526020600482015260126024820152711253959053125117d0d3d35352551351539560721b604482015290519081900360640190fd5b60ac5483101561172f576040805162461bcd60e51b815260206004820152601d60248201527f434f4d4d49544d454e545f4d41595f4e4f545f42455f52454455434544000000604482015290519081900360640190fd5b60ac839055612710851115611779576040805162461bcd60e51b815260206004820152600b60248201526a494e56414c49445f46454560a81b604482015290519081900360640190fd5b60a5859055816117c9576040805162461bcd60e51b81526020600482015260166024820152751253959053125117d3525397d253959154d51351539560521b604482015290519081900360640190fd5b60ab82905560aa54811015611825576040805162461bcd60e51b815260206004820152601d60248201527f4f50454e5f554e54494c5f4d41595f4e4f545f42455f52454455434544000000604482015290519081900360640190fd5b60aa819055609f546001600160a01b03898116610100909204161461195f576001600160a01b038816611891576040805162461bcd60e51b815260206004820152600f60248201526e494e56414c49445f4144445245535360881b604482015290519081900360640190fd5b609f546000906118ae9061010090046001600160a01b0316611dcb565b609f546001600160a01b036101009091048116600090815260a7602052604080822054928d1682529020549192506118ec919063ffffffff612db816565b6001600160a01b03808b16600090815260a7602052604080822093909355609f546101009004909116815290812055801561193d57609f5461193d9061010090046001600160a01b03168a83612a82565b50609f8054610100600160a81b0319166101006001600160a01b038b16021790555b604080516001600160a01b038b811682528615156020830152818301869052606082018890526080820185905260a082018490529151828916928a811692908c16917f64c539ad5ca31b3ba33150837a33d9e038c90023b19e46e187dcf033bbdae5b39181900360c00190a4505050505050505050565b609f5461010090046001600160a01b03163314611a2d576040805162461bcd60e51b815260206004820152601060248201526f42454e45464943494152595f4f4e4c5960801b604482015290519081900360640190fd5b60ad54600090611a6c5760ad54604080519182526003602083015280516000805160206137e08339815191529281900390910190a1600360ad55611b43565b600160ad541415611b06574260aa541115611aba576040805162461bcd60e51b8152602060048201526009602482015268544f4f5f4541524c5960b81b604482015290519081900360640190fd5b611ac334611df8565b60ad54604080519182526002602083015280519293506000805160206137e083398151915292918290030190a1600260ad55611b0181346001610b51565b611b43565b6040805162461bcd60e51b815260206004820152600d60248201526c494e56414c49445f535441544560981b604482015290519081900360640190fd5b6040805182815290517fbf67515a38ee520223d32c1266d52101c30d936ed1f3e436c8caeb0a43cb06bf9181900360200190a150565b600080609e54611b87610f9f565b0190506000611bb6611ba760ac54600202866125ef90919063ffffffff16565b60a15460a05461271002612c2f565b9050611bca8183800263ffffffff612db816565b9050611bd581612e12565b905081811115611be75781900361133b565b5060009392505050565b609e5481565b60a15481565b60ac5481565b609f5461010090046001600160a01b031633141580611c255750600260ad5410155b611c605760405162461bcd60e51b81526004018080602001828103825260288152602001806138776028913960400191505060405180910390fd5b60008111611cac576040805162461bcd60e51b81526020600482015260146024820152734d5553545f53454c4c5f41545f4c454153545f3160601b604482015290519081900360640190fd5b6000611cb783612230565b905081811015611cff576040805162461bcd60e51b815260206004820152600e60248201526d50524943455f534c49505041474560901b604482015290519081900360640190fd5b60ad541580611d105750600360ad54145b15611d465733600090815260a76020526040902054611d35908463ffffffff61246e16565b33600090815260a760205260409020555b611d523384600161284b565b6000609e54611d5f610f9f565b01905060a854811015611d725760a88190555b611d7c85836126ee565b604080518381526020810186905281516001600160a01b0388169233927fa082022e93cfcd9f1da5f9236718053910f7e840da080c789c7845698dc032ff929081900390910190a35050505050565b6001600160a01b031660009081526033602052604090205490565b60a76020526000908152604090205481565b600080600160ad5414156114bd576000611e106123ba565b9050611e22818563ffffffff61246e16565b90506000611e2e610f9f565b9050611e438160a054609e540260a154612c2f565b9250611e56818260a0540260a154612c2f565b83019250818311611e6a5760009250611e70565b81830392505b50509050919050565b60ab5481565b609d546001600160a01b031681565b60698054604080516020601f6002600019610100600188161502019095169490940493840181900481028201810190925282815260609390929091830182828015610e9a5780601f10610e6f57610100808354040283529160200191610e9a565b60a95481565b6000610eb9611f0261298c565b84611332856040518060600160405280602581526020016139336025913960346000611f2c61298c565b6001600160a01b03908116825260208083019390935260409182016000908120918d1681529252902054919063ffffffff612b9816565b6001600160a01b038316611fb0576040805162461bcd60e51b815260206004820152600f60248201526e494e56414c49445f4144445245535360881b604482015290519081900360640190fd5b60008111611ffb576040805162461bcd60e51b81526020600482015260136024820152724d5553545f4255595f41545f4c454153545f3160681b604482015290519081900360640190fd5b600061200683611348565b90508181101561204e576040805162461bcd60e51b815260206004820152600e60248201526d50524943455f534c49505041474560901b604482015290519081900360640190fd5b604080518481526020810183905281516001600160a01b0387169233927f89f5adc174562e07c9c9b1cae7109bbecb21cf9d1b2847e550042b8653c54a0e929081900390910190a36120a283346000610b51565b60ad54612171576001600160a01b038416600090815260a76020526040902080548201905560a65460a854826120d6610f9f565b01031061216c5760ad54604080519182526001602083015280516000805160206137e08339815191529281900390910190a1600160ad55609f5461010090046001600160a01b0316600090815260a7602052604081205460a65460a05460a15461214893929190910290600202612c2f565b905061216a612165826121596123ba565b9063ffffffff61246e16565b612e81565b505b612194565b609f546001600160a01b0385811661010090920416146121945761219483612e81565b61219e8482612730565b600160ad541480156121bf5750609f5461010090046001600160a01b031633145b80156121dd5750609f546001600160a01b0385811661010090920416145b80156121eb5750609f5460ff165b15610f9957609f54610f999061010090046001600160a01b031682600061284b565b609f5460ff1681565b60a85481565b6000610eb961222961298c565b8484612a82565b60008061223b6123ba565b90506000600160ad5414156122d2576000609e54612257610f9f565b01905061228261226d868563ffffffff6125ef16565b609e54800261227a610f9f565b848502612efc565b91506000612299866002860263ffffffff6125ef16565b90508181816122a457fe5b049283019290506122c76122be878063ffffffff6125ef16565b858485026130a8565b83039250505061133b565b600260ad541415612307576122ed848363ffffffff6125ef16565b90506122f7610f9f565b81816122ff57fe5b04905061133b565b612317848363ffffffff6125ef16565b905060a854612324610f9f565b03818161232d57fe5b04949350505050565b60a55481565b60ad5481565b61234e81346000610b51565b6123588282610c48565b5050565b60a4546001600160a01b031681565b60a2546001600160a01b031681565b60aa5481565b6001600160a01b03918216600090815260346020908152604080832093909416825291909152205490565b60a3546001600160a01b031681565b60a35460009047906001600160a01b03161561244a5760a354604080516370a0823160e01b815230600482015290516001600160a01b03909216916370a0823191602480820192602092909190829003018186803b15801561241b57600080fd5b505afa15801561242f573d6000803e3d6000fd5b505050506040513d602081101561244557600080fd5b505190505b6001600160801b03811115612469576001600160801b03915050610ea2565b905090565b600061133b83836040518060400160405280601e81526020017f536166654d6174683a207375627472616374696f6e206f766572666c6f770000815250612b98565b80471015612505576040805162461bcd60e51b815260206004820152601d60248201527f416464726573733a20696e73756666696369656e742062616c616e6365000000604482015290519081900360640190fd5b6040516000906001600160a01b0384169083908381818185875af1925050503d8060008114612550576040519150601f19603f3d011682016040523d82523d6000602084013e612555565b606091505b5050905080610c435760405162461bcd60e51b815260040180806020018281038252603a8152602001806137a6603a913960400191505060405180910390fd5b604080516001600160a01b0385811660248301528416604482015260648082018490528251808303909101815260849091019091526020810180516001600160e01b03166323b872dd60e01b179052610f999085906130f3565b6000826125fe57506000610ebd565b8282028284828161260b57fe5b041461133b5760405162461bcd60e51b81526004018080602001828103825260218152602001806138006021913960400191505060405180910390fd5b609d546000906001600160a01b031615611be757609d546040805163d4ce141560e01b81526001600160a01b0387811660048301528681166024830152604482018690529151919092169163d4ce1415916064808301926020929190829003018186803b1580156126b857600080fd5b505afa1580156126cc573d6000803e3d6000fd5b505050506040513d60208110156126e257600080fd5b505160ff16905061133b565b80156123585760a3546001600160a01b03166127135761270e82826124b0565b612358565b60a354612358906001600160a01b0316838363ffffffff6132ab16565b609d546000908390839083906001600160a01b0316156127c857609d54604080516336dffedf60e01b81526001600160a01b0387811660048301528681166024830152604482018690528415156064830152915191909216916336dffedf91608480830192600092919082900301818387803b1580156127af57600080fd5b505af11580156127c3573d6000803e3d6000fd5b505050505b6127d286866132fd565b6f4b3b4ca85a86c47a098a2240000000006127fd609e546127f1610f9f565b9063ffffffff612db816565b1115612843576040805162461bcd60e51b815260206004820152601060248201526f4558434553534956455f535550504c5960801b604482015290519081900360640190fd5b505050505050565b609d548390600090849084906001600160a01b0316156128e357609d54604080516336dffedf60e01b81526001600160a01b0387811660048301528681166024830152604482018690528415156064830152915191909216916336dffedf91608480830192600092919082900301818387803b1580156128ca57600080fd5b505af11580156128de573d6000803e3d6000fd5b505050505b6128ed87876133ef565b8461298357600160ad541461293b576040805162461bcd60e51b815260206004820152600f60248201526e27a7262cafa22aa924a723afa92aa760891b604482015290519081900360640190fd5b609e8054870190556040805187815290516001600160a01b038916917fcc16f5dbb4873280815c1ee09dbd06736cffcc184412cf7a71a0fdb75d397ca5919081900360200190a25b50505050505050565b3390565b6001600160a01b0383166129d55760405162461bcd60e51b81526004018080602001828103825260248152602001806138e56024913960400191505060405180910390fd5b6001600160a01b038216612a1a5760405162461bcd60e51b815260040180806020018281038252602281526020018061375e6022913960400191505060405180910390fd5b6001600160a01b03808416600081815260346020908152604080832094871680845294825291829020859055815185815291517f8c5be1e5ebec7d5bd14f71427d1e84f3dd0314c0f7b2291e5b200ac8c7c3b9259281900390910190a3505050565b303b1590565b609d548390839083906000906001600160a01b031615612b1a57609d54604080516336dffedf60e01b81526001600160a01b0387811660048301528681166024830152604482018690528415156064830152915191909216916336dffedf91608480830192600092919082900301818387803b158015612b0157600080fd5b505af1158015612b15573d6000803e3d6000fd5b505050505b60ad54151580612b3c5750609f546001600160a01b0388811661010090920416145b612b8d576040805162461bcd60e51b815260206004820152601c60248201527f4f4e4c595f42454e45464943494152595f445552494e475f494e495400000000604482015290519081900360640190fd5b6129838787876134eb565b60008184841115612c275760405162461bcd60e51b81526004018080602001828103825283818151815260200191508051906020019080838360005b83811015612bec578181015183820152602001612bd4565b50505050905090810190601f168015612c195780820380516001836020036101000a031916815260200191505b509250505060405180910390fd5b505050900390565b6000831580612c3c575082155b15612c495750600061133b565b6000838560001981612c5757fe5b0410612c745750838302828181612c6a57fe5b04915061133b9050565b838581811115612c845750859050845b848281612c8d57fe5b0492506305f5e100831115612cb757612cac838263ffffffff6125ef16565b935061133b92505050565b60001981016001600160801b038104600101905060001983016001600160801b0381046001019050808260001981612ceb57fe5b0410612d5b5790810290818481612cfe57fe5b049450630bebc200851115612d5b57612d1d858463ffffffff6125ef16565b9450506000198601818181612d2e57fe5b049050612d4281600163ffffffff612db816565b9050808581612d4d57fe5b04955061133b945050505050565b60016001600160801b03600019850104019150818381612d7757fe5b049450506000198601818181612d8957fe5b046001019050808481612d9857fe5b049050612dab858263ffffffff6125ef16565b9998505050505050505050565b60008282018381101561133b576040805162461bcd60e51b815260206004820152601b60248201527f536166654d6174683a206164646974696f6e206f766572666c6f770000000000604482015290519081900360640190fd5b600081612e21575060006114c0565b60038211612e31575060016114c0565b600019821415612e4957506001600160801b036114c0565b5080600260018201045b81811015612e7b57809150600281828581612e6a57fe5b040181612e7357fe5b049050612e53565b50919050565b60a954600090612e97908363ffffffff6125ef16565b61271090049050612ea8828261246e565b90506000612ec160a554836125ef90919063ffffffff16565b609f546127109091049150612ee69061010090046001600160a01b03168284036126ee565b60a454610c43906001600160a01b0316826126ee565b6000818360001981612f0a57fe5b0410612f2457612f1d8585848602612c2f565b90506130a0565b841580612f2f575083155b15612f3c575060006130a0565b818381811115612f4c5750839050825b6000868860001981612f5a57fe5b0410612f855750868602818181612f6d57fe5b049050828181612f7957fe5b0493506130a092505050565b868881811115612f955750889050875b6000848381612fa057fe5b049050630bebc200811115612fc757612fba818388612c2f565b96505050505050506130a0565b506001600160801b036000198381018290046001908101928483010401908290829081612ff057fe5b041061306b57810280848161300157fe5b049450630bebc20085111561306b57613020858463ffffffff6125ef16565b945085858161302b57fe5b049450600085118015613049575080856000198161304557fe5b0410155b1561306b579384029386858161305b57fe5b0497506130a09650505050505050565b5050600160801b85046001600160801b038504810261309681858161308c57fe5b0484600019612c2f565b9750505050505050505b949350505050565b6000806130b6858585612c2f565b9050806130c757600191505061133b565b60016305f5e1006000198301040181198111156130ea576000199250505061133b565b01949350505050565b613105826001600160a01b0316613649565b613156576040805162461bcd60e51b815260206004820152601f60248201527f5361666545524332303a2063616c6c20746f206e6f6e2d636f6e747261637400604482015290519081900360640190fd5b60006060836001600160a01b0316836040518082805190602001908083835b602083106131945780518252601f199092019160209182019101613175565b6001836020036101000a0380198251168184511680821785525050505050509050019150506000604051808303816000865af19150503d80600081146131f6576040519150601f19603f3d011682016040523d82523d6000602084013e6131fb565b606091505b509150915081613252576040805162461bcd60e51b815260206004820181905260248201527f5361666545524332303a206c6f772d6c6576656c2063616c6c206661696c6564604482015290519081900360640190fd5b805115610f995780806020019051602081101561326e57600080fd5b5051610f995760405162461bcd60e51b815260040180806020018281038252602a815260200180613909602a913960400191505060405180910390fd5b604080516001600160a01b038416602482015260448082018490528251808303909101815260649091019091526020810180516001600160e01b031663a9059cbb60e01b179052610c439084906130f3565b6001600160a01b038216613358576040805162461bcd60e51b815260206004820152601f60248201527f45524332303a206d696e7420746f20746865207a65726f206164647265737300604482015290519081900360640190fd5b60355461336b908263ffffffff612db816565b6035556001600160a01b038216600090815260336020526040902054613397908263ffffffff612db816565b6001600160a01b03831660008181526033602090815260408083209490945583518581529351929391927fddf252ad1be2c89b69c2b068fc378daa952ba7f163c4a11628f55a4df523b3ef9281900390910190a35050565b6001600160a01b0382166134345760405162461bcd60e51b815260040180806020018281038252602181526020018061389f6021913960400191505060405180910390fd5b6134778160405180606001604052806022815260200161373c602291396001600160a01b038516600090815260336020526040902054919063ffffffff612b9816565b6001600160a01b0383166000908152603360205260409020556035546134a3908263ffffffff61246e16565b6035556040805182815290516000916001600160a01b038516917fddf252ad1be2c89b69c2b068fc378daa952ba7f163c4a11628f55a4df523b3ef9181900360200190a35050565b6001600160a01b0383166135305760405162461bcd60e51b81526004018080602001828103825260258152602001806138c06025913960400191505060405180910390fd5b6001600160a01b0382166135755760405162461bcd60e51b81526004018080602001828103825260238152602001806137196023913960400191505060405180910390fd5b6135b881604051806060016040528060268152602001613780602691396001600160a01b038616600090815260336020526040902054919063ffffffff612b9816565b6001600160a01b0380851660009081526033602052604080822093909355908416815220546135ed908263ffffffff612db816565b6001600160a01b0380841660008181526033602090815260409182902094909455805185815290519193928716927fddf252ad1be2c89b69c2b068fc378daa952ba7f163c4a11628f55a4df523b3ef92918290030190a3505050565b6000813f7fc5d2460186f7233c927e7db2dcc703c0e500b653ca82273b7bfad8045d85a47081158015906130a05750141592915050565b828054600181600116156101000203166002900490600052602060002090601f016020900481019282601f106136c157805160ff19168380011785556136ee565b828001600101855582156136ee579182015b828111156136ee5782518255916020019190600101906136d3565b506136fa9291506136fe565b5090565b610ea291905b808211156136fa576000815560010161370456fe45524332303a207472616e7366657220746f20746865207a65726f206164647265737345524332303a206275726e20616d6f756e7420657863656564732062616c616e636545524332303a20617070726f766520746f20746865207a65726f206164647265737345524332303a207472616e7366657220616d6f756e7420657863656564732062616c616e6365416464726573733a20756e61626c6520746f2073656e642076616c75652c20726563697069656e74206d61792068617665207265766572746564107dddb4541735557564238389eccfc9979bfdde5e57e24e9777b6fe79b4d22f536166654d6174683a206d756c7469706c69636174696f6e206f766572666c6f7745524332303a207472616e7366657220616d6f756e74206578636565647320616c6c6f77616e6365436f6e747261637420696e7374616e63652068617320616c7265616479206265656e20696e697469616c697a656442454e45464943494152595f4f4e4c595f53454c4c5f494e5f434c4f53455f4f525f43414e43454c45524332303a206275726e2066726f6d20746865207a65726f206164647265737345524332303a207472616e736665722066726f6d20746865207a65726f206164647265737345524332303a20617070726f76652066726f6d20746865207a65726f20616464726573735361666545524332303a204552433230206f7065726174696f6e20646964206e6f74207375636365656445524332303a2064656372656173656420616c6c6f77616e63652062656c6f77207a65726fa265627a7a72315820c76e912f8d3f319dc1ab5c66086d18c9591fca546e6d071eeae72eedf6e6f4c664736f6c634300050f0032",
  "source": "pragma solidity 0.5.15;\r\n\r\nimport \"./interfaces/IWhitelist.sol\";\r\nimport \"./math/BigDiv.sol\";\r\nimport \"./math/Sqrt.sol\";\r\nimport \"@openzeppelin/contracts-ethereum-package/contracts/token/ERC20/IERC20.sol\";\r\nimport \"@openzeppelin/contracts-ethereum-package/contracts/token/ERC20/SafeERC20.sol\";\r\nimport \"@openzeppelin/contracts-ethereum-package/contracts/token/ERC20/ERC20.sol\";\r\nimport \"@openzeppelin/contracts-ethereum-package/contracts/token/ERC20/ERC20Detailed.sol\";\r\nimport \"@openzeppelin/contracts-ethereum-package/contracts/math/SafeMath.sol\";\r\nimport \"@openzeppelin/contracts-ethereum-package/contracts/utils/Address.sol\";\r\n\r\n\r\n/**\r\n * @title Decentralized Autonomous Trust\r\n * This contract is the reference implementation provided by Fairmint for a\r\n * Decentralized Autonomous Trust as described in the continuous\r\n * organization whitepaper (https://github.com/c-org/whitepaper) and\r\n * specified here: https://github.com/fairmint/c-org/wiki. Use at your own\r\n * risk. If you have question or if you're looking for a ready-to-use\r\n * solution using this contract, you might be interested in Fairmint's\r\n * offering. Do not hesitate to get in touch with us: https://fairmint.co\r\n */\r\ncontract DecentralizedAutonomousTrust\r\n  is ERC20, ERC20Detailed\r\n{\r\n  using SafeMath for uint;\r\n  using Sqrt for uint;\r\n  using SafeERC20 for IERC20;\r\n\r\n  /**\r\n   * Events\r\n   */\r\n\r\n  event Buy(\r\n    address indexed _from,\r\n    address indexed _to,\r\n    uint _currencyValue,\r\n    uint _fairValue\r\n  );\r\n  event Sell(\r\n    address indexed _from,\r\n    address indexed _to,\r\n    uint _currencyValue,\r\n    uint _fairValue\r\n  );\r\n  event Burn(\r\n    address indexed _from,\r\n    uint _fairValue\r\n  );\r\n  event Pay(\r\n    address indexed _from,\r\n    address indexed _to,\r\n    uint _currencyValue,\r\n    uint _fairValue\r\n  );\r\n  event Close(\r\n    uint _exitFee\r\n  );\r\n  event StateChange(\r\n    uint _previousState,\r\n    uint _newState\r\n  );\r\n  event UpdateConfig(\r\n    address _whitelistAddress,\r\n    address indexed _beneficiary,\r\n    address indexed _control,\r\n    address indexed _feeCollector,\r\n    bool _autoBurn,\r\n    uint _revenueCommitmentBasisPoints,\r\n    uint _feeBasisPoints,\r\n    uint _minInvestment,\r\n    uint _openUntilAtLeast\r\n  );\r\n\r\n  /**\r\n   * Constants\r\n   */\r\n\r\n  /// @notice The default state\r\n  uint private constant STATE_INIT = 0;\r\n\r\n  /// @notice The state after initGoal has been reached\r\n  uint private constant STATE_RUN = 1;\r\n\r\n  /// @notice The state after closed by the `beneficiary` account from STATE_RUN\r\n  uint private constant STATE_CLOSE = 2;\r\n\r\n  /// @notice The state after closed by the `beneficiary` account from STATE_INIT\r\n  uint private constant STATE_CANCEL = 3;\r\n\r\n  /// @notice When multiplying 2 terms, the max value is 2^128-1\r\n  uint private constant MAX_BEFORE_SQUARE = 2**128 - 1;\r\n\r\n  /// @notice The denominator component for values specified in basis points.\r\n  uint private constant BASIS_POINTS_DEN = 10000;\r\n\r\n  /// @notice The max `totalSupply() + burnedSupply`\r\n  /// @dev This limit ensures that the DAT's formulas do not overflow (<MAX_BEFORE_SQUARE/2)\r\n  uint private constant MAX_SUPPLY = 10 ** 38;\r\n\r\n  /**\r\n   * Data specific to our token business logic\r\n   */\r\n\r\n  /// @notice The contract for transfer authorizations, if any.\r\n  IWhitelist public whitelist;\r\n\r\n  /// @notice The total number of burned FAIR tokens, excluding tokens burned from a `Sell` action in the DAT.\r\n  uint public burnedSupply;\r\n\r\n  /**\r\n   * Data for DAT business logic\r\n   */\r\n\r\n  /// @notice Set if the FAIRs minted by the organization when it commits its revenues are\r\n  /// automatically burnt (`true`) or not (`false`). Defaults to `false` meaning that there\r\n  /// is no automatic burn.\r\n  bool public autoBurn;\r\n\r\n  /// @notice The address of the beneficiary organization which receives the investments.\r\n  /// Points to the wallet of the organization.\r\n  address payable public beneficiary;\r\n\r\n  /// @notice The buy slope of the bonding curve.\r\n  /// Does not affect the financial model, only the granularity of FAIR.\r\n  /// @dev This is the numerator component of the fractional value.\r\n  uint public buySlopeNum;\r\n\r\n  /// @notice The buy slope of the bonding curve.\r\n  /// Does not affect the financial model, only the granularity of FAIR.\r\n  /// @dev This is the denominator component of the fractional value.\r\n  uint public buySlopeDen;\r\n\r\n  /// @notice The address from which the updatable variables can be updated\r\n  address public control;\r\n\r\n  /// @notice The address of the token used as reserve in the bonding curve\r\n  /// (e.g. the DAI contract). Use ETH if 0.\r\n  IERC20 public currency;\r\n\r\n  /// @notice The address where fees are sent.\r\n  address payable public feeCollector;\r\n\r\n  /// @notice The percent fee collected each time new FAIR are issued expressed in basis points.\r\n  uint public feeBasisPoints;\r\n\r\n  /// @notice The initial fundraising goal (expressed in FAIR) to start the c-org.\r\n  /// `0` means that there is no initial fundraising and the c-org immediately moves to run state.\r\n  uint public initGoal;\r\n\r\n  /// @notice A map with all investors in init state using address as a key and amount as value.\r\n  /// @dev This structure's purpose is to make sure that only investors can withdraw their money if init_goal is not reached.\r\n  mapping(address => uint) public initInvestors;\r\n\r\n  /// @notice The initial number of FAIR created at initialization for the beneficiary.\r\n  /// Technically however, this variable is not a constant as we must always have\r\n  ///`init_reserve>=total_supply+burnt_supply` which means that `init_reserve` will be automatically\r\n  /// decreased to equal `total_supply+burnt_supply` in case `init_reserve>total_supply+burnt_supply`\r\n  /// after an investor sells his FAIRs.\r\n  /// @dev Organizations may move these tokens into vesting contract(s)\r\n  uint public initReserve;\r\n\r\n  /// @notice The investment reserve of the c-org. Defines the percentage of the value invested that is\r\n  /// automatically funneled and held into the buyback_reserve expressed in basis points.\r\n  uint public investmentReserveBasisPoints;\r\n\r\n  /// @notice The earliest date/time (in seconds) that the DAT may enter the `CLOSE` state, ensuring\r\n  /// that if the DAT reaches the `RUN` state it will remain running for at least this period of time.\r\n  /// @dev This value may be increased anytime by the control account\r\n  uint public openUntilAtLeast;\r\n\r\n  /// @notice The minimum amount of `currency` investment accepted.\r\n  uint public minInvestment;\r\n\r\n  /// @notice The revenue commitment of the organization. Defines the percentage of the value paid through the contract\r\n  /// that is automatically funneled and held into the buyback_reserve expressed in basis points.\r\n  uint public revenueCommitmentBasisPoints;\r\n\r\n  /// @notice The current state of the contract.\r\n  /// @dev See the constants above for possible state values.\r\n  uint public state;\r\n\r\n  modifier authorizeTransfer(\r\n    address _from,\r\n    address _to,\r\n    uint _value,\r\n    bool _isSell\r\n  )\r\n  {\r\n    if(address(whitelist) != address(0))\r\n    {\r\n      // This is not set for the minting of initialReserve\r\n      whitelist.authorizeTransfer(_from, _to, _value, _isSell);\r\n    }\r\n    _;\r\n  }\r\n\r\n  /**\r\n   * Buyback reserve\r\n   */\r\n\r\n  /// @notice The total amount of currency value currently locked in the contract and available to sellers.\r\n  function buybackReserve() public view returns (uint)\r\n  {\r\n    uint reserve = address(this).balance;\r\n    if(address(currency) != address(0))\r\n    {\r\n      reserve = currency.balanceOf(address(this));\r\n    }\r\n\r\n    if(reserve > MAX_BEFORE_SQUARE)\r\n    {\r\n      /// Math: If the reserve becomes excessive, cap the value to prevent overflowing in other formulas\r\n      return MAX_BEFORE_SQUARE;\r\n    }\r\n\r\n    return reserve;\r\n  }\r\n\r\n  /**\r\n   * Functions required for the whitelist\r\n   */\r\n\r\n  function _detectTransferRestriction(\r\n    address _from,\r\n    address _to,\r\n    uint _value\r\n  ) private view\r\n    returns (uint)\r\n  {\r\n    if(address(whitelist) != address(0))\r\n    {\r\n      // This is not set for the minting of initialReserve\r\n      return whitelist.detectTransferRestriction(_from, _to, _value);\r\n    }\r\n\r\n    return 0;\r\n  }\r\n\r\n  /**\r\n   * Functions required by the ERC-20 token standard\r\n   */\r\n\r\n  /// @dev Moves tokens from one account to another if authorized.\r\n  function _transfer(\r\n    address _from,\r\n    address _to,\r\n    uint _amount\r\n  ) internal\r\n    authorizeTransfer(_from, _to, _amount, false)\r\n  {\r\n    require(state != STATE_INIT || _from == beneficiary, \"ONLY_BENEFICIARY_DURING_INIT\");\r\n    super._transfer(_from, _to, _amount);\r\n  }\r\n\r\n  /// @dev Removes tokens from the circulating supply.\r\n  function _burn(\r\n    address _from,\r\n    uint _amount,\r\n    bool _isSell\r\n  ) internal\r\n    authorizeTransfer(_from, address(0), _amount, _isSell)\r\n  {\r\n    super._burn(_from, _amount);\r\n\r\n    if(!_isSell)\r\n    {\r\n      // This is a burn\r\n      require(state == STATE_RUN, \"ONLY_DURING_RUN\");\r\n      // SafeMath not required as we cap how high this value may get during mint\r\n      burnedSupply += _amount;\r\n      emit Burn(_from, _amount);\r\n    }\r\n  }\r\n\r\n  /// @notice Called to mint tokens on `buy`.\r\n  function _mint(\r\n    address _to,\r\n    uint _quantity\r\n  ) internal\r\n    authorizeTransfer(address(0), _to, _quantity, false)\r\n  {\r\n    super._mint(_to, _quantity);\r\n\r\n    // Math: If this value got too large, the DAT may overflow on sell\r\n    require(totalSupply().add(burnedSupply) <= MAX_SUPPLY, \"EXCESSIVE_SUPPLY\");\r\n  }\r\n\r\n  /**\r\n   * Transaction Helpers\r\n   */\r\n\r\n  /// @notice Confirms the transfer of `_quantityToInvest` currency to the contract.\r\n  function _collectInvestment(\r\n    uint _quantityToInvest,\r\n    uint _msgValue,\r\n    bool _refundRemainder\r\n  ) private\r\n  {\r\n    if(address(currency) == address(0))\r\n    {\r\n      // currency is ETH\r\n      if(_refundRemainder)\r\n      {\r\n        // Math: if _msgValue was not sufficient then revert\r\n        uint refund = _msgValue.sub(_quantityToInvest);\r\n        if(refund > 0)\r\n        {\r\n          Address.sendValue(msg.sender, refund);\r\n        }\r\n      }\r\n      else\r\n      {\r\n        require(_quantityToInvest == _msgValue, \"INCORRECT_MSG_VALUE\");\r\n      }\r\n    }\r\n    else\r\n    {\r\n      // currency is ERC20\r\n      require(_msgValue == 0, \"DO_NOT_SEND_ETH\");\r\n\r\n      currency.safeTransferFrom(msg.sender, address(this), _quantityToInvest);\r\n    }\r\n  }\r\n\r\n  /// @dev Send `_amount` currency from the contract to the `_to` account.\r\n  function _transferCurrency(\r\n    address payable _to,\r\n    uint _amount\r\n  ) private\r\n  {\r\n    if(_amount > 0)\r\n    {\r\n      if(address(currency) == address(0))\r\n      {\r\n        Address.sendValue(_to, _amount);\r\n      }\r\n      else\r\n      {\r\n        currency.safeTransfer(_to, _amount);\r\n      }\r\n    }\r\n  }\r\n\r\n  /**\r\n   * Config / Control\r\n   */\r\n\r\n  /// @notice Called once after deploy to set the initial configuration.\r\n  /// None of the values provided here may change once initially set.\r\n  /// @dev using the init pattern in order to support zos upgrades\r\n  function initialize(\r\n    uint _initReserve,\r\n    address _currencyAddress,\r\n    uint _initGoal,\r\n    uint _buySlopeNum,\r\n    uint _buySlopeDen,\r\n    uint _investmentReserveBasisPoints,\r\n    string memory _name,\r\n    string memory _symbol\r\n  ) public\r\n  {\r\n    require(control == address(0), \"ALREADY_INITIALIZED\");\r\n\r\n    ERC20Detailed.initialize(_name, _symbol, 18);\r\n\r\n    // Set initGoal, which in turn defines the initial state\r\n    if(_initGoal == 0)\r\n    {\r\n      emit StateChange(state, STATE_RUN);\r\n      state = STATE_RUN;\r\n    }\r\n    else\r\n    {\r\n      // Math: If this value got too large, the DAT would overflow on sell\r\n      require(_initGoal < MAX_SUPPLY, \"EXCESSIVE_GOAL\");\r\n      initGoal = _initGoal;\r\n    }\r\n\r\n    require(_buySlopeNum > 0, \"INVALID_SLOPE_NUM\");\r\n    require(_buySlopeDen > 0, \"INVALID_SLOPE_DEN\");\r\n    require(_buySlopeNum < MAX_BEFORE_SQUARE, \"EXCESSIVE_SLOPE_NUM\");\r\n    require(_buySlopeDen < MAX_BEFORE_SQUARE, \"EXCESSIVE_SLOPE_DEN\");\r\n    buySlopeNum = _buySlopeNum;\r\n    buySlopeDen = _buySlopeDen;\r\n    // 100% or less\r\n    require(_investmentReserveBasisPoints <= BASIS_POINTS_DEN, \"INVALID_RESERVE\");\r\n    investmentReserveBasisPoints = _investmentReserveBasisPoints;\r\n\r\n    // Set default values (which may be updated using `updateConfig`)\r\n    minInvestment = 100 ether;\r\n    beneficiary = msg.sender;\r\n    control = msg.sender;\r\n    feeCollector = msg.sender;\r\n\r\n    // Save currency\r\n    currency = IERC20(_currencyAddress);\r\n\r\n    // Mint the initial reserve\r\n    if(_initReserve > 0)\r\n    {\r\n      initReserve = _initReserve;\r\n      _mint(beneficiary, initReserve);\r\n    }\r\n  }\r\n\r\n  function updateConfig(\r\n    address _whitelistAddress,\r\n    address payable _beneficiary,\r\n    address _control,\r\n    address payable _feeCollector,\r\n    uint _feeBasisPoints,\r\n    bool _autoBurn,\r\n    uint _revenueCommitmentBasisPoints,\r\n    uint _minInvestment,\r\n    uint _openUntilAtLeast\r\n  ) public\r\n  {\r\n    // This require(also confirms that initialize has been called.\r\n    require(msg.sender == control, \"CONTROL_ONLY\");\r\n\r\n    // address(0) is okay\r\n    whitelist = IWhitelist(_whitelistAddress);\r\n\r\n    require(_control != address(0), \"INVALID_ADDRESS\");\r\n    control = _control;\r\n\r\n    require(_feeCollector != address(0), \"INVALID_ADDRESS\");\r\n    feeCollector = _feeCollector;\r\n\r\n    autoBurn = _autoBurn;\r\n\r\n    require(_revenueCommitmentBasisPoints <= BASIS_POINTS_DEN, \"INVALID_COMMITMENT\");\r\n    require(_revenueCommitmentBasisPoints >= revenueCommitmentBasisPoints, \"COMMITMENT_MAY_NOT_BE_REDUCED\");\r\n    revenueCommitmentBasisPoints = _revenueCommitmentBasisPoints;\r\n\r\n    require(_feeBasisPoints <= BASIS_POINTS_DEN, \"INVALID_FEE\");\r\n    feeBasisPoints = _feeBasisPoints;\r\n\r\n    require(_minInvestment > 0, \"INVALID_MIN_INVESTMENT\");\r\n    minInvestment = _minInvestment;\r\n\r\n    require(_openUntilAtLeast >= openUntilAtLeast, \"OPEN_UNTIL_MAY_NOT_BE_REDUCED\");\r\n    openUntilAtLeast = _openUntilAtLeast;\r\n\r\n    if(beneficiary != _beneficiary)\r\n    {\r\n      require(_beneficiary != address(0), \"INVALID_ADDRESS\");\r\n      uint tokens = balanceOf(beneficiary);\r\n      initInvestors[_beneficiary] = initInvestors[_beneficiary].add(initInvestors[beneficiary]);\r\n      initInvestors[beneficiary] = 0;\r\n      if(tokens > 0)\r\n      {\r\n        _transfer(beneficiary, _beneficiary, tokens);\r\n      }\r\n      beneficiary = _beneficiary;\r\n    }\r\n\r\n    emit UpdateConfig(\r\n      _whitelistAddress,\r\n      _beneficiary,\r\n      _control,\r\n      _feeCollector,\r\n      _autoBurn,\r\n      _revenueCommitmentBasisPoints,\r\n      _feeBasisPoints,\r\n      _minInvestment,\r\n      _openUntilAtLeast\r\n    );\r\n  }\r\n\r\n  /**\r\n   * Functions for our business logic\r\n   */\r\n\r\n  /// @notice Burn the amount of tokens from the address msg.sender if authorized.\r\n  /// @dev Note that this is not the same as a `sell` via the DAT.\r\n  function burn(\r\n    uint _amount\r\n  ) public\r\n  {\r\n    _burn(msg.sender, _amount, false);\r\n  }\r\n\r\n  // Buy\r\n\r\n  /// @dev Distributes _value currency between the buybackReserve, beneficiary, and feeCollector.\r\n  function _distributeInvestment(\r\n    uint _value\r\n  ) private\r\n  {\r\n    // Rounding favors buybackReserve, then beneficiary, and feeCollector is last priority.\r\n\r\n    // Math: if investment value is < (2^256 - 1) / 10000 this will never overflow.\r\n    // Except maybe with a huge single investment, but they can try again with multiple smaller investments.\r\n    uint reserve = investmentReserveBasisPoints.mul(_value);\r\n    reserve /= BASIS_POINTS_DEN;\r\n    reserve = _value.sub(reserve);\r\n    uint fee = reserve.mul(feeBasisPoints);\r\n    fee /= BASIS_POINTS_DEN;\r\n\r\n    // Math: since feeBasisPoints is <= BASIS_POINTS_DEN, this will never underflow.\r\n    _transferCurrency(beneficiary, reserve - fee);\r\n    _transferCurrency(feeCollector, fee);\r\n  }\r\n\r\n  /// @notice Calculate how many FAIR tokens you would buy with the given amount of currency if `buy` was called now.\r\n  /// @param _currencyValue How much currency to spend in order to buy FAIR.\r\n  function estimateBuyValue(\r\n    uint _currencyValue\r\n  ) public view\r\n    returns (uint)\r\n  {\r\n    if(_currencyValue < minInvestment)\r\n    {\r\n      return 0;\r\n    }\r\n\r\n    /// Calculate the tokenValue for this investment\r\n    uint tokenValue;\r\n    if(state == STATE_INIT)\r\n    {\r\n      uint currencyValue = _currencyValue;\r\n      uint _totalSupply = totalSupply();\r\n      // (buy_slope*init_goal)*(init_goal+init_reserve-total_supply)/2\r\n      // n/d: buy_slope (MAX_BEFORE_SQUARE / MAX_BEFORE_SQUARE)\r\n      // g: init_goal (MAX_BEFORE_SQUARE/2)\r\n      // t: total_supply (MAX_BEFORE_SQUARE/2)\r\n      // r: init_reserve (MAX_BEFORE_SQUARE/2)\r\n      // source: ((n/d)*g)*(g+r-t)/2\r\n      // impl: (g n (g + r - t))/(2 d)\r\n      uint max = BigDiv.bigDiv2x1(\r\n        initGoal * buySlopeNum,\r\n        initGoal + initReserve - _totalSupply,\r\n        2 * buySlopeDen\r\n      );\r\n      if(currencyValue > max)\r\n      {\r\n        currencyValue = max;\r\n      }\r\n      // Math: worst case\r\n      // MAX * 2 * MAX_BEFORE_SQUARE\r\n      // / MAX_BEFORE_SQUARE * MAX_BEFORE_SQUARE\r\n      tokenValue = BigDiv.bigDiv2x1(\r\n        currencyValue,\r\n        2 * buySlopeDen,\r\n        initGoal * buySlopeNum\r\n      );\r\n\r\n      if(currencyValue != _currencyValue)\r\n      {\r\n        currencyValue = _currencyValue - max;\r\n        // ((2*next_amount/buy_slope)+init_goal^2)^(1/2)-init_goal\r\n        // a: next_amount | currencyValue\r\n        // n/d: buy_slope (MAX_BEFORE_SQUARE / MAX_BEFORE_SQUARE)\r\n        // g: init_goal (MAX_BEFORE_SQUARE/2)\r\n        // r: init_reserve (MAX_BEFORE_SQUARE/2)\r\n        // sqrt(((2*a/(n/d))+g^2)-g\r\n        // sqrt((2 d a + n g^2)/n) - g\r\n\r\n        // currencyValue == 2 d a\r\n        uint temp = 2 * buySlopeDen;\r\n        currencyValue = temp.mul(currencyValue);\r\n\r\n        // temp == g^2\r\n        temp = initGoal;\r\n        temp *= temp;\r\n\r\n        // temp == n g^2\r\n        temp = temp.mul(buySlopeNum);\r\n\r\n        // temp == (2 d a) + n g^2\r\n        temp = currencyValue.add(temp);\r\n\r\n        // temp == (2 d a + n g^2)/n\r\n        temp /= buySlopeNum;\r\n\r\n        // temp == sqrt((2 d a + n g^2)/n)\r\n        temp = temp.sqrt();\r\n\r\n        // temp == sqrt((2 d a + n g^2)/n) - g\r\n        temp -= initGoal;\r\n\r\n        tokenValue = tokenValue.add(temp);\r\n      }\r\n    }\r\n    else if(state == STATE_RUN)\r\n    {\r\n      // initReserve is reduced on sell as necessary to ensure that this line will not overflow\r\n      uint supply = totalSupply() + burnedSupply - initReserve;\r\n      // Math: worst case\r\n      // MAX * 2 * MAX_BEFORE_SQUARE\r\n      // / MAX_BEFORE_SQUARE\r\n      tokenValue = BigDiv.bigDiv2x1(\r\n        _currencyValue,\r\n        2 * buySlopeDen,\r\n        buySlopeNum\r\n      );\r\n\r\n      // Math: worst case MAX + (MAX_BEFORE_SQUARE * MAX_BEFORE_SQUARE)\r\n      tokenValue = tokenValue.add(supply * supply);\r\n      tokenValue = tokenValue.sqrt();\r\n\r\n      // Math: small chance of underflow due to possible rounding in sqrt\r\n      tokenValue = tokenValue.sub(supply);\r\n    }\r\n    else\r\n    {\r\n      // invalid state\r\n      return 0;\r\n    }\r\n\r\n    return tokenValue;\r\n  }\r\n\r\n  /// @notice Purchase FAIR tokens with the given amount of currency.\r\n  /// @param _to The account to receive the FAIR tokens from this purchase.\r\n  /// @param _currencyValue How much currency to spend in order to buy FAIR.\r\n  /// @param _minTokensBought Buy at least this many FAIR tokens or the transaction reverts.\r\n  /// @dev _minTokensBought is necessary as the price will change if some elses transaction mines after\r\n  /// yours was submitted.\r\n  function buy(\r\n    address _to,\r\n    uint _currencyValue,\r\n    uint _minTokensBought\r\n  ) public payable\r\n  {\r\n    require(_to != address(0), \"INVALID_ADDRESS\");\r\n    require(_minTokensBought > 0, \"MUST_BUY_AT_LEAST_1\");\r\n\r\n    // Calculate the tokenValue for this investment\r\n    uint tokenValue = estimateBuyValue(_currencyValue);\r\n    require(tokenValue >= _minTokensBought, \"PRICE_SLIPPAGE\");\r\n\r\n    emit Buy(msg.sender, _to, _currencyValue, tokenValue);\r\n\r\n    _collectInvestment(_currencyValue, msg.value, false);\r\n\r\n    // Update state, initInvestors, and distribute the investment when appropriate\r\n    if(state == STATE_INIT)\r\n    {\r\n      // Math worst case: MAX_BEFORE_SQUARE\r\n      initInvestors[_to] += tokenValue;\r\n      // Math worst case:\r\n      // MAX_BEFORE_SQUARE + MAX_BEFORE_SQUARE\r\n      if(totalSupply() + tokenValue - initReserve >= initGoal)\r\n      {\r\n        emit StateChange(state, STATE_RUN);\r\n        state = STATE_RUN;\r\n        // Math worst case:\r\n        // MAX_BEFORE_SQUARE * MAX_BEFORE_SQUARE * MAX_BEFORE_SQUARE/2\r\n        // / MAX_BEFORE_SQUARE * 2\r\n        uint beneficiaryContribution = BigDiv.bigDiv2x1(\r\n          initInvestors[beneficiary],\r\n          buySlopeNum * initGoal,\r\n          buySlopeDen * 2\r\n        );\r\n        _distributeInvestment(buybackReserve().sub(beneficiaryContribution));\r\n      }\r\n    }\r\n    else // implied: if(state == STATE_RUN)\r\n    {\r\n      if(_to != beneficiary)\r\n      {\r\n        _distributeInvestment(_currencyValue);\r\n      }\r\n    }\r\n\r\n    _mint(_to, tokenValue);\r\n\r\n    if(state == STATE_RUN && msg.sender == beneficiary && _to == beneficiary && autoBurn)\r\n    {\r\n      // must mint before this call\r\n      _burn(beneficiary, tokenValue, false);\r\n    }\r\n  }\r\n\r\n  /// Sell\r\n\r\n  function estimateSellValue(\r\n    uint _quantityToSell\r\n  ) public view\r\n    returns(uint)\r\n  {\r\n    uint reserve = buybackReserve();\r\n\r\n    // Calculate currencyValue for this sale\r\n    uint currencyValue;\r\n    if(state == STATE_RUN)\r\n    {\r\n      uint supply = totalSupply() + burnedSupply;\r\n\r\n      // buyback_reserve = r\r\n      // total_supply = t\r\n      // burnt_supply = b\r\n      // amount = a\r\n      // source: (t+b)*a*(2*r)/((t+b)^2)-(((2*r)/((t+b)^2)*a^2)/2)+((2*r)/((t+b)^2)*a*b^2)/(2*(t))\r\n      // imp: (a b^2 r)/(t (b + t)^2) + (2 a r)/(b + t) - (a^2 r)/(b + t)^2\r\n\r\n      // Math: burnedSupply is capped in FAIR such that the square will never overflow\r\n      // Math worst case:\r\n      // MAX * MAX_BEFORE_SQUARE * MAX_BEFORE_SQUARE/2 * MAX_BEFORE_SQUARE/2\r\n      // / MAX_BEFORE_SQUARE/2 * MAX_BEFORE_SQUARE/2 * MAX_BEFORE_SQUARE/2\r\n      currencyValue = BigDiv.bigDiv2x2(\r\n        _quantityToSell.mul(reserve),\r\n        burnedSupply * burnedSupply,\r\n        totalSupply(), supply * supply\r\n      );\r\n      // Math: worst case currencyValue is MAX_BEFORE_SQUARE (max reserve, 1 supply)\r\n\r\n      // Math worst case:\r\n      // MAX * 2 * MAX_BEFORE_SQUARE\r\n      uint temp = _quantityToSell.mul(2 * reserve);\r\n      temp /= supply;\r\n      // Math: worst-case temp is MAX_BEFORE_SQUARE (max reserve, 1 supply)\r\n\r\n      // Math: considering the worst-case for currencyValue and temp, this can never overflow\r\n      currencyValue += temp;\r\n\r\n      // Math: worst case\r\n      // MAX * MAX * MAX_BEFORE_SQUARE\r\n      // / MAX_BEFORE_SQUARE/2 * MAX_BEFORE_SQUARE/2\r\n      currencyValue -= BigDiv.bigDiv2x1RoundUp(\r\n        _quantityToSell.mul(_quantityToSell),\r\n        reserve,\r\n        supply * supply\r\n      );\r\n    }\r\n    else if(state == STATE_CLOSE)\r\n    {\r\n      // Math worst case\r\n      // MAX * MAX_BEFORE_SQUARE\r\n      currencyValue = _quantityToSell.mul(reserve);\r\n      currencyValue /= totalSupply();\r\n    }\r\n    else\r\n    {\r\n      // STATE_INIT or STATE_CANCEL\r\n      // Math worst case:\r\n      // MAX * MAX_BEFORE_SQUARE\r\n      currencyValue = _quantityToSell.mul(reserve);\r\n      // Math: FAIR blocks initReserve from being burned unless we reach the RUN state which prevents an underflow\r\n      currencyValue /= totalSupply() - initReserve;\r\n    }\r\n\r\n    return currencyValue;\r\n  }\r\n\r\n  /// @notice Sell FAIR tokens for at least the given amount of currency.\r\n  /// @param _to The account to receive the currency from this sale.\r\n  /// @param _quantityToSell How many FAIR tokens to sell for currency value.\r\n  /// @param _minCurrencyReturned Get at least this many currency tokens or the transaction reverts.\r\n  /// @dev _minCurrencyReturned is necessary as the price will change if some elses transaction mines after\r\n  /// yours was submitted.\r\n  function sell(\r\n    address payable _to,\r\n    uint _quantityToSell,\r\n    uint _minCurrencyReturned\r\n  ) public\r\n  {\r\n    require(msg.sender != beneficiary || state >= STATE_CLOSE, \"BENEFICIARY_ONLY_SELL_IN_CLOSE_OR_CANCEL\");\r\n    require(_minCurrencyReturned > 0, \"MUST_SELL_AT_LEAST_1\");\r\n\r\n    uint currencyValue = estimateSellValue(_quantityToSell);\r\n    require(currencyValue >= _minCurrencyReturned, \"PRICE_SLIPPAGE\");\r\n\r\n    if(state == STATE_INIT || state == STATE_CANCEL)\r\n    {\r\n      initInvestors[msg.sender] = initInvestors[msg.sender].sub(_quantityToSell);\r\n    }\r\n\r\n    _burn(msg.sender, _quantityToSell, true);\r\n    uint supply = totalSupply() + burnedSupply;\r\n    if(supply < initReserve)\r\n    {\r\n      initReserve = supply;\r\n    }\r\n\r\n    _transferCurrency(_to, currencyValue);\r\n    emit Sell(msg.sender, _to, currencyValue, _quantityToSell);\r\n  }\r\n\r\n  /// Pay\r\n\r\n  function estimatePayValue(\r\n    uint _currencyValue\r\n  ) public view\r\n    returns (uint)\r\n  {\r\n    // buy_slope = n/d\r\n    // revenue_commitment = c/g\r\n    // sqrt(\r\n    //  (2 a c d)\r\n    //  /\r\n    //  (g n)\r\n    //  + s^2\r\n    // ) - s\r\n\r\n    uint supply = totalSupply() + burnedSupply;\r\n\r\n    // Math: worst case\r\n    // MAX * 2 * 10000 * MAX_BEFORE_SQUARE\r\n    // / 10000 * MAX_BEFORE_SQUARE\r\n    uint tokenValue = BigDiv.bigDiv2x1(\r\n      _currencyValue.mul(2 * revenueCommitmentBasisPoints),\r\n      buySlopeDen,\r\n      BASIS_POINTS_DEN * buySlopeNum\r\n    );\r\n\r\n    tokenValue = tokenValue.add(supply * supply);\r\n    tokenValue = tokenValue.sqrt();\r\n\r\n    if(tokenValue > supply)\r\n    {\r\n      tokenValue -= supply;\r\n    }\r\n    else\r\n    {\r\n      tokenValue = 0;\r\n    }\r\n\r\n    return tokenValue;\r\n  }\r\n\r\n  /// @dev Pay the organization on-chain.\r\n  /// @param _to The account which receives tokens for the contribution.\r\n  /// @param _currencyValue How much currency which was paid.\r\n  function _pay(\r\n    address _to,\r\n    uint _currencyValue\r\n  ) private\r\n  {\r\n    require(_currencyValue > 0, \"MISSING_CURRENCY\");\r\n    require(state == STATE_RUN, \"INVALID_STATE\");\r\n\r\n    // Send a portion of the funds to the beneficiary, the rest is added to the buybackReserve\r\n    // Math: if _currencyValue is < (2^256 - 1) / 10000 this will not overflow\r\n    uint reserve = _currencyValue.mul(investmentReserveBasisPoints);\r\n    reserve /= BASIS_POINTS_DEN;\r\n\r\n    uint tokenValue = estimatePayValue(_currencyValue);\r\n\r\n    // Update the to address to the beneficiary if the currency value would fail\r\n    address to = _to;\r\n    if(to == address(0))\r\n    {\r\n      to = beneficiary;\r\n    }\r\n    else if(_detectTransferRestriction(address(0), _to, tokenValue) != 0)\r\n    {\r\n      to = beneficiary;\r\n    }\r\n\r\n    // Math: this will never underflow since investmentReserveBasisPoints is capped to BASIS_POINTS_DEN\r\n    _transferCurrency(beneficiary, _currencyValue - reserve);\r\n\r\n    // Distribute tokens\r\n    if(tokenValue > 0)\r\n    {\r\n      _mint(to, tokenValue);\r\n      if(to == beneficiary && autoBurn)\r\n      {\r\n        // must mint before this call\r\n        _burn(beneficiary, tokenValue, false);\r\n      }\r\n    }\r\n\r\n    emit Pay(msg.sender, _to, _currencyValue, tokenValue);\r\n  }\r\n\r\n  /// @dev Pay the organization on-chain.\r\n  /// @param _to The account which receives tokens for the contribution. If this address\r\n  /// is not authorized to receive tokens then they will be sent to the beneficiary account instead.\r\n  /// @param _currencyValue How much currency which was paid.\r\n  function pay(\r\n    address _to,\r\n    uint _currencyValue\r\n  ) public payable\r\n  {\r\n    _collectInvestment(_currencyValue, msg.value, false);\r\n    _pay(_to, _currencyValue);\r\n  }\r\n\r\n  /// @dev Pay the organization on-chain with ETH (only works when currency is ETH)\r\n  function () external payable\r\n  {\r\n    _collectInvestment(msg.value, msg.value, false);\r\n    _pay(msg.sender, msg.value);\r\n  }\r\n\r\n  /// Close\r\n\r\n  function estimateExitFee(\r\n    uint _msgValue\r\n  ) public view\r\n    returns(uint)\r\n  {\r\n    uint exitFee;\r\n\r\n    if(state == STATE_RUN)\r\n    {\r\n      uint reserve = buybackReserve();\r\n      reserve = reserve.sub(_msgValue);\r\n\r\n      // Source: t*(t+b)*(n/d)-r\r\n      // Implementation: (b n t)/d + (n t^2)/d - r\r\n\r\n      uint _totalSupply = totalSupply();\r\n\r\n      // Math worst case:\r\n      // MAX_BEFORE_SQUARE * MAX_BEFORE_SQUARE/2 * MAX_BEFORE_SQUARE\r\n      exitFee = BigDiv.bigDiv2x1(\r\n        _totalSupply,\r\n        burnedSupply * buySlopeNum,\r\n        buySlopeDen\r\n      );\r\n      // Math worst case:\r\n      // MAX_BEFORE_SQUARE * MAX_BEFORE_SQUARE * MAX_BEFORE_SQUARE\r\n      exitFee += BigDiv.bigDiv2x1(\r\n        _totalSupply,\r\n        buySlopeNum * _totalSupply,\r\n        buySlopeDen\r\n      );\r\n      // Math: this if condition avoids a potential overflow\r\n      if(exitFee <= reserve)\r\n      {\r\n        exitFee = 0;\r\n      }\r\n      else\r\n      {\r\n        exitFee -= reserve;\r\n      }\r\n    }\r\n\r\n    return exitFee;\r\n  }\r\n\r\n  /// @notice Called by the beneficiary account to STATE_CLOSE or STATE_CANCEL the c-org,\r\n  /// preventing any more tokens from being minted.\r\n  /// @dev Requires an `exitFee` to be paid.  If the currency is ETH, include a little more than\r\n  /// what appears to be required and any remainder will be returned to your account.  This is\r\n  /// because another user may have a transaction mined which changes the exitFee required.\r\n  /// For other `currency` types, the beneficiary account will be billed the exact amount required.\r\n  function close() public payable\r\n  {\r\n    require(msg.sender == beneficiary, \"BENEFICIARY_ONLY\");\r\n\r\n    uint exitFee = 0;\r\n\r\n    if(state == STATE_INIT)\r\n    {\r\n      // Allow the org to cancel anytime if the initGoal was not reached.\r\n      emit StateChange(state, STATE_CANCEL);\r\n      state = STATE_CANCEL;\r\n    }\r\n    else if(state == STATE_RUN)\r\n    {\r\n      // Collect the exitFee and close the c-org.\r\n      require(openUntilAtLeast <= block.timestamp, \"TOO_EARLY\");\r\n\r\n      exitFee = estimateExitFee(msg.value);\r\n\r\n      emit StateChange(state, STATE_CLOSE);\r\n      state = STATE_CLOSE;\r\n\r\n      _collectInvestment(exitFee, msg.value, true);\r\n    }\r\n    else\r\n    {\r\n      revert(\"INVALID_STATE\");\r\n    }\r\n\r\n    emit Close(exitFee);\r\n  }\r\n}\r\n",
  "sourcePath": "D:/c-org/contracts/DecentralizedAutonomousTrust.sol",
  "compiler": {
    "name": "solc",
    "version": "0.5.15+commit.6a57276f.Emscripten.clang"
  },
  "schemaVersion": "3.0.19",
  "updatedAt": "2019-12-28T20:38:42.628Z",
  "devdoc": {
    "methods": {
      "allowance(address,address)": {
        "details": "See {IERC20-allowance}."
      },
      "approve(address,uint256)": {
        "details": "See {IERC20-approve}.     * Requirements:     * - `spender` cannot be the zero address."
      },
      "balanceOf(address)": {
        "details": "See {IERC20-balanceOf}."
      },
      "burn(uint256)": {
        "details": "Note that this is not the same as a `sell` via the DAT."
      },
      "buy(address,uint256,uint256)": {
        "details": "_minTokensBought is necessary as the price will change if some elses transaction mines after yours was submitted.",
        "params": {
          "_currencyValue": "How much currency to spend in order to buy FAIR.",
          "_minTokensBought": "Buy at least this many FAIR tokens or the transaction reverts.",
          "_to": "The account to receive the FAIR tokens from this purchase."
        }
      },
      "close()": {
        "details": "Requires an `exitFee` to be paid.  If the currency is ETH, include a little more than what appears to be required and any remainder will be returned to your account.  This is because another user may have a transaction mined which changes the exitFee required. For other `currency` types, the beneficiary account will be billed the exact amount required."
      },
      "decimals()": {
        "details": "Returns the number of decimals used to get its user representation. For example, if `decimals` equals `2`, a balance of `505` tokens should be displayed to a user as `5,05` (`505 / 10 ** 2`).     * Tokens usually opt for a value of 18, imitating the relationship between Ether and Wei.     * NOTE: This information is only used for _display_ purposes: it in no way affects any of the arithmetic of the contract, including {IERC20-balanceOf} and {IERC20-transfer}."
      },
      "decreaseAllowance(address,uint256)": {
        "details": "Atomically decreases the allowance granted to `spender` by the caller.     * This is an alternative to {approve} that can be used as a mitigation for problems described in {IERC20-approve}.     * Emits an {Approval} event indicating the updated allowance.     * Requirements:     * - `spender` cannot be the zero address. - `spender` must have allowance for the caller of at least `subtractedValue`."
      },
      "estimateBuyValue(uint256)": {
        "params": {
          "_currencyValue": "How much currency to spend in order to buy FAIR."
        }
      },
      "increaseAllowance(address,uint256)": {
        "details": "Atomically increases the allowance granted to `spender` by the caller.     * This is an alternative to {approve} that can be used as a mitigation for problems described in {IERC20-approve}.     * Emits an {Approval} event indicating the updated allowance.     * Requirements:     * - `spender` cannot be the zero address."
      },
      "initialize(string,string,uint8)": {
        "details": "Sets the values for `name`, `symbol`, and `decimals`. All three of these values are immutable: they can only be set once during construction."
      },
      "initialize(uint256,address,uint256,uint256,uint256,uint256,string,string)": {
        "details": "using the init pattern in order to support zos upgrades"
      },
      "name()": {
        "details": "Returns the name of the token."
      },
      "pay(address,uint256)": {
        "details": "Pay the organization on-chain.",
        "params": {
          "_currencyValue": "How much currency which was paid.",
          "_to": "The account which receives tokens for the contribution. If this address is not authorized to receive tokens then they will be sent to the beneficiary account instead."
        }
      },
      "sell(address,uint256,uint256)": {
        "details": "_minCurrencyReturned is necessary as the price will change if some elses transaction mines after yours was submitted.",
        "params": {
          "_minCurrencyReturned": "Get at least this many currency tokens or the transaction reverts.",
          "_quantityToSell": "How many FAIR tokens to sell for currency value.",
          "_to": "The account to receive the currency from this sale."
        }
      },
      "symbol()": {
        "details": "Returns the symbol of the token, usually a shorter version of the name."
      },
      "totalSupply()": {
        "details": "See {IERC20-totalSupply}."
      },
      "transfer(address,uint256)": {
        "details": "See {IERC20-transfer}.     * Requirements:     * - `recipient` cannot be the zero address. - the caller must have a balance of at least `amount`."
      },
      "transferFrom(address,address,uint256)": {
        "details": "See {IERC20-transferFrom}.     * Emits an {Approval} event indicating the updated allowance. This is not required by the EIP. See the note at the beginning of {ERC20};     * Requirements: - `sender` and `recipient` cannot be the zero address. - `sender` must have a balance of at least `amount`. - the caller must have allowance for `sender`'s tokens of at least `amount`."
      }
    },
    "title": "Decentralized Autonomous Trust This contract is the reference implementation provided by Fairmint for a Decentralized Autonomous Trust as described in the continuous organization whitepaper (https://github.com/c-org/whitepaper) and specified here: https://github.com/fairmint/c-org/wiki. Use at your own risk. If you have question or if you're looking for a ready-to-use solution using this contract, you might be interested in Fairmint's offering. Do not hesitate to get in touch with us: https://fairmint.co"
  },
  "userdoc": {
    "methods": {
      "burn(uint256)": {
        "notice": "Burn the amount of tokens from the address msg.sender if authorized."
      },
      "buy(address,uint256,uint256)": {
        "notice": "Purchase FAIR tokens with the given amount of currency."
      },
      "buybackReserve()": {
        "notice": "The total amount of currency value currently locked in the contract and available to sellers."
      },
      "close()": {
        "notice": "Called by the beneficiary account to STATE_CLOSE or STATE_CANCEL the c-org, preventing any more tokens from being minted."
      },
      "estimateBuyValue(uint256)": {
        "notice": "Calculate how many FAIR tokens you would buy with the given amount of currency if `buy` was called now."
      },
      "estimateExitFee(uint256)": {
        "notice": "Close"
      },
      "estimatePayValue(uint256)": {
        "notice": "Pay"
      },
      "estimateSellValue(uint256)": {
        "notice": "Sell"
      },
      "initialize(uint256,address,uint256,uint256,uint256,uint256,string,string)": {
        "notice": "Called once after deploy to set the initial configuration. None of the values provided here may change once initially set."
      },
      "sell(address,uint256,uint256)": {
        "notice": "Sell FAIR tokens for at least the given amount of currency."
      }
    }
  }
}