{
  "contractName": "NoFallbackProxy",
  "abi": [
    {
      "payable": true,
      "stateMutability": "payable",
      "type": "fallback"
    },
    {
      "constant": false,
      "inputs": [
        {
          "internalType": "address",
          "name": "_contract",
          "type": "address"
        },
        {
          "internalType": "bytes",
          "name": "_callData",
          "type": "bytes"
        }
      ],
      "name": "proxyCall",
      "outputs": [],
      "payable": true,
      "stateMutability": "payable",
      "type": "function"
    }
  ],
  "bytecode": "0x608060405234801561001057600080fd5b506101cd806100206000396000f3fe60806040526004361061001e5760003560e01c80632a31f6b414610059575b6040805162461bcd60e51b815260206004820152600b60248201526a4e4f5f46414c4c4241434b60a81b604482015290519081900360640190fd5b61010f6004803603604081101561006f57600080fd5b6001600160a01b03823516919081019060408101602082013564010000000081111561009a57600080fd5b8201836020820111156100ac57600080fd5b803590602001918460018302840111640100000000831117156100ce57600080fd5b91908080601f016020809104026020016040519081016040528093929190818152602001838380828437600092019190915250929550610111945050505050565b005b61012b6001600160a01b038316823463ffffffff61012f16565b5050565b600080600084516020860185885af1905080610192576040805162461bcd60e51b815260206004820152601d60248201527f494e5445524e414c5f434f4e54524143545f43414c4c5f4641494c4544000000604482015290519081900360640190fd5b5050505056fea265627a7a72315820b947f74def9bc40bac56d3ed5b1febde1e27e59957fc5162110c1187306e688764736f6c634300050f0032",
  "source": "pragma solidity ^0.5.0;\r\n\r\nimport \"hardlydifficult-ethereum-contracts/contracts/proxies/CallContract.sol\";\r\n\r\n\r\ncontract NoFallbackProxy\r\n{\r\n  using CallContract for address;\r\n\r\n  function() external payable\r\n  {\r\n    revert(\"NO_FALLBACK\");\r\n  }\r\n\r\n  function proxyCall(\r\n    address _contract,\r\n    bytes memory _callData\r\n  ) public payable\r\n  {\r\n    _contract._call(_callData, msg.value);\r\n  }\r\n}\r\n",
  "sourcePath": "D:/c-org/contracts/test-artifacts/NoFallbackProxy.sol",
  "compiler": {
    "name": "solc",
    "version": "0.5.15+commit.6a57276f.Emscripten.clang"
  },
  "schemaVersion": "3.0.19",
  "updatedAt": "2020-01-10T22:34:33.123Z",
  "devdoc": {
    "methods": {}
  },
  "userdoc": {
    "methods": {}
  }
}