{
  "contractName": "NoFallbackProxy",
  "abi": [
    {
      "payable": true,
      "stateMutability": "payable",
      "type": "fallback"
    },
    {
      "constant": false,
      "inputs": [
        {
          "internalType": "address",
          "name": "_contract",
          "type": "address"
        },
        {
          "internalType": "bytes",
          "name": "_callData",
          "type": "bytes"
        }
      ],
      "name": "proxyCall",
      "outputs": [],
      "payable": true,
      "stateMutability": "payable",
      "type": "function"
    }
  ],
  "bytecode": "0x608060405234801561001057600080fd5b506101bf806100206000396000f3fe60806040526004361061001e5760003560e01c80632a31f6b414610059575b6040805162461bcd60e51b815260206004820152600b60248201526a4e4f5f46414c4c4241434b60a81b604482015290519081900360640190fd5b61010f6004803603604081101561006f57600080fd5b6001600160a01b03823516919081019060408101602082013564010000000081111561009a57600080fd5b8201836020820111156100ac57600080fd5b803590602001918460018302840111640100000000831117156100ce57600080fd5b91908080601f016020809104026020016040519081016040528093929190818152602001838380828437600092019190915250929550610111945050505050565b005b61011c823483610120565b5050565b60008060405183516020850186885af1905080610184576040805162461bcd60e51b815260206004820152601d60248201527f494e5445524e414c5f434f4e54524143545f43414c4c5f4641494c4544000000604482015290519081900360640190fd5b5050505056fea265627a7a72315820dcdaf613d255e63f338fd0126fc231e13f42907fc5a0fc05a9b64bf6c7fb8c3664736f6c634300050e0032",
  "source": "pragma solidity ^0.5.0;\n\nimport \"hardlydifficult-ethereum-contracts/contracts/proxies/CallContract.sol\";\n\n\ncontract NoFallbackProxy is CallContract\n{\n  function() external payable\n  {\n    revert(\"NO_FALLBACK\");\n  }\n\n  function proxyCall(\n    address _contract,\n    bytes memory _callData\n  ) public payable\n  {\n    _call(_contract, msg.value, _callData);\n  }\n}\n",
  "sourcePath": "/home/nick/git/c-org/contracts/test-artifacts/NoFallbackProxy.sol",
  "compiler": {
    "name": "solc",
    "version": "0.5.14+commit.01f1aaa4.Emscripten.clang"
  },
  "schemaVersion": "3.0.19",
  "updatedAt": "2019-12-09T20:14:07.415Z",
  "devdoc": {
    "methods": {}
  },
  "userdoc": {
    "methods": {}
  }
}