{
  "contractName": "SqrtMock",
  "abi": [
    {
      "constant": true,
      "inputs": [
        {
          "internalType": "uint256",
          "name": "x",
          "type": "uint256"
        }
      ],
      "name": "sqrt",
      "outputs": [
        {
          "internalType": "uint256",
          "name": "y",
          "type": "uint256"
        }
      ],
      "payable": false,
      "stateMutability": "pure",
      "type": "function"
    }
  ],
  "bytecode": "0x608060405234801561001057600080fd5b5061010d806100206000396000f3fe6080604052348015600f57600080fd5b506004361060285760003560e01c8063677342ce14602d575b600080fd5b604760048036036020811015604157600080fd5b50356059565b60408051918252519081900360200190f35b6000606282606a565b90505b919050565b6000816077575060006065565b600382116085575060016065565b60001982141560a457506fffffffffffffffffffffffffffffffff6065565b5080600260018201045b8181101560d25780915060028182858160c357fe5b04018160cb57fe5b04905060ae565b5091905056fea265627a7a7231582097038fc4a5344036d97edaa96df8e5cf93ba38acfbd47e564fdc76cedd4e945064736f6c634300050e0032",
  "source": "pragma solidity ^0.5.0;\n\n\nimport \"../math/Sqrt.sol\";\n\n/**\n * @title Used for testing only.\n */\ncontract SqrtMock\n{\n  function sqrt(\n    uint x\n  ) public pure\n    returns (uint y)\n  {\n    return Sqrt.sqrt(x);\n  }\n}\n",
  "sourcePath": "/home/nick/git/c-org/contracts/test-artifacts/SqrtMock.sol",
  "compiler": {
    "name": "solc",
    "version": "0.5.14+commit.01f1aaa4.Emscripten.clang"
  },
  "schemaVersion": "3.0.19",
  "updatedAt": "2019-12-09T20:14:07.415Z",
  "devdoc": {
    "methods": {},
    "title": "Used for testing only."
  },
  "userdoc": {
    "methods": {}
  }
}