{
  "contractName": "Whitelist",
  "abi": [
    {
      "anonymous": false,
      "inputs": [
        {
          "indexed": true,
          "internalType": "address",
          "name": "_trader",
          "type": "address"
        },
        {
          "indexed": false,
          "internalType": "bool",
          "name": "_isApproved",
          "type": "bool"
        }
      ],
      "name": "Approve",
      "type": "event"
    },
    {
      "anonymous": false,
      "inputs": [
        {
          "indexed": true,
          "internalType": "address",
          "name": "previousOwner",
          "type": "address"
        },
        {
          "indexed": true,
          "internalType": "address",
          "name": "newOwner",
          "type": "address"
        }
      ],
      "name": "OwnershipTransferred",
      "type": "event"
    },
    {
      "constant": true,
      "inputs": [
        {
          "internalType": "address",
          "name": "",
          "type": "address"
        }
      ],
      "name": "approved",
      "outputs": [
        {
          "internalType": "bool",
          "name": "",
          "type": "bool"
        }
      ],
      "payable": false,
      "stateMutability": "view",
      "type": "function"
    },
    {
      "constant": true,
      "inputs": [],
      "name": "dat",
      "outputs": [
        {
          "internalType": "address",
          "name": "",
          "type": "address"
        }
      ],
      "payable": false,
      "stateMutability": "view",
      "type": "function"
    },
    {
      "constant": true,
      "inputs": [],
      "name": "isOwner",
      "outputs": [
        {
          "internalType": "bool",
          "name": "",
          "type": "bool"
        }
      ],
      "payable": false,
      "stateMutability": "view",
      "type": "function"
    },
    {
      "constant": true,
      "inputs": [],
      "name": "owner",
      "outputs": [
        {
          "internalType": "address",
          "name": "",
          "type": "address"
        }
      ],
      "payable": false,
      "stateMutability": "view",
      "type": "function"
    },
    {
      "constant": false,
      "inputs": [],
      "name": "renounceOwnership",
      "outputs": [],
      "payable": false,
      "stateMutability": "nonpayable",
      "type": "function"
    },
    {
      "constant": false,
      "inputs": [
        {
          "internalType": "address",
          "name": "newOwner",
          "type": "address"
        }
      ],
      "name": "transferOwnership",
      "outputs": [],
      "payable": false,
      "stateMutability": "nonpayable",
      "type": "function"
    },
    {
      "constant": false,
      "inputs": [
        {
          "internalType": "address",
          "name": "_dat",
          "type": "address"
        }
      ],
      "name": "initialize",
      "outputs": [],
      "payable": false,
      "stateMutability": "nonpayable",
      "type": "function"
    },
    {
      "constant": true,
      "inputs": [
        {
          "internalType": "address",
          "name": "_from",
          "type": "address"
        },
        {
          "internalType": "address",
          "name": "_to",
          "type": "address"
        },
        {
          "internalType": "uint256",
          "name": "",
          "type": "uint256"
        }
      ],
      "name": "detectTransferRestriction",
      "outputs": [
        {
          "internalType": "uint8",
          "name": "",
          "type": "uint8"
        }
      ],
      "payable": false,
      "stateMutability": "view",
      "type": "function"
    },
    {
      "constant": true,
      "inputs": [
        {
          "internalType": "uint8",
          "name": "_restrictionCode",
          "type": "uint8"
        }
      ],
      "name": "messageForTransferRestriction",
      "outputs": [
        {
          "internalType": "string",
          "name": "",
          "type": "string"
        }
      ],
      "payable": false,
      "stateMutability": "pure",
      "type": "function"
    },
    {
      "constant": false,
      "inputs": [
        {
          "internalType": "address",
          "name": "_trader",
          "type": "address"
        },
        {
          "internalType": "bool",
          "name": "_isApproved",
          "type": "bool"
        }
      ],
      "name": "approve",
      "outputs": [],
      "payable": false,
      "stateMutability": "nonpayable",
      "type": "function"
    },
    {
      "constant": false,
      "inputs": [
        {
          "internalType": "address",
          "name": "_from",
          "type": "address"
        },
        {
          "internalType": "address",
          "name": "_to",
          "type": "address"
        },
        {
          "internalType": "uint256",
          "name": "_value",
          "type": "uint256"
        },
        {
          "internalType": "bool",
          "name": "_isSell",
          "type": "bool"
        }
      ],
      "name": "authorizeTransfer",
      "outputs": [],
      "payable": false,
      "stateMutability": "nonpayable",
      "type": "function"
    }
  ],
  "bytecode": "0x6080604052610944806100136000396000f3fe608060405234801561001057600080fd5b50600436106100a95760003560e01c80638da5cb5b116100715780638da5cb5b146101dd5780638f32d59b146101e5578063c4d66de814610201578063d4ce141514610227578063d8b964e614610273578063f2fde38b14610299576100a9565b806336dffedf146100ae5780633d140d21146100ee57806363eb963a1461011c578063715018a6146101405780637f4ab1dd14610148575b600080fd5b6100ec600480360360808110156100c457600080fd5b506001600160a01b0381358116916020810135909116906040810135906060013515156102bf565b005b6100ec6004803603604081101561010457600080fd5b506001600160a01b038135169060200135151561036a565b61012461047d565b604080516001600160a01b039092168252519081900360200190f35b6100ec61048c565b6101686004803603602081101561015e57600080fd5b503560ff1661052f565b6040805160208082528351818301528351919283929083019185019080838360005b838110156101a257818101518382015260200161018a565b50505050905090810190601f1680156101cf5780820380516001836020036101000a031916815260200191505b509250505060405180910390f35b6101246105b7565b6101ed6105c6565b604080519115158252519081900360200190f35b6100ec6004803603602081101561021757600080fd5b50356001600160a01b03166105ec565b61025d6004803603606081101561023d57600080fd5b506001600160a01b0381358116916020810135909116906040013561064c565b6040805160ff9092168252519081900360200190f35b6101ed6004803603602081101561028957600080fd5b50356001600160a01b03166106a4565b6100ec600480360360208110156102af57600080fd5b50356001600160a01b03166106b9565b6067546001600160a01b03163314610312576040805162461bcd60e51b815260206004820152601160248201527043414c4c5f5649415f4441545f4f4e4c5960781b604482015290519081900360640190fd5b61031d84848461064c565b60ff1615610364576040805162461bcd60e51b815260206004820152600f60248201526e1514905394d1915497d11153925151608a1b604482015290519081900360640190fd5b50505050565b6103726105c6565b6103c3576040805162461bcd60e51b815260206004820181905260248201527f4f776e61626c653a2063616c6c6572206973206e6f7420746865206f776e6572604482015290519081900360640190fd5b6103cb6105b7565b6001600160a01b0316336001600160a01b03161461041d576040805162461bcd60e51b815260206004820152600a6024820152694f574e45525f4f4e4c5960b01b604482015290519081900360640190fd5b6001600160a01b038216600081815260666020908152604091829020805460ff1916851515908117909155825190815291517f1f478f1e5aee36a892d86e821aba410dc0934cb0ebd0241dd7537083388454539281900390910190a25050565b6067546001600160a01b031681565b6104946105c6565b6104e5576040805162461bcd60e51b815260206004820181905260248201527f4f776e61626c653a2063616c6c6572206973206e6f7420746865206f776e6572604482015290519081900360640190fd5b6033546040516000916001600160a01b0316907f8be0079c531659141344cd1fd0a4f28419497f9722a3daafe3b4186f6b6457e0908390a3603380546001600160a01b0319169055565b606060ff821661055d57506040805180820190915260078152665355434345535360c81b60208201526105b2565b8160ff166001141561058c575060408051808201909152600681526511115392515160d21b60208201526105b2565b5060408051808201909152600d81526c2aa725a727aba72fa2a92927a960991b60208201525b919050565b6033546001600160a01b031690565b6033546000906001600160a01b03166105dd61071e565b6001600160a01b031614905090565b6105f533610722565b606780546001600160a01b0319166001600160a01b03929092169190911790556000805260666020527f6f48904484b35701cf1f41ad9068b394adf7e2f8a59d2309a04d10a155eaa72b805460ff19166001179055565b6001600160a01b03831660009081526066602052604081205460ff16801561068c57506001600160a01b03831660009081526066602052604090205460ff165b156106995750600061069d565b5060015b9392505050565b60666020526000908152604090205460ff1681565b6106c16105c6565b610712576040805162461bcd60e51b815260206004820181905260248201527f4f776e61626c653a2063616c6c6572206973206e6f7420746865206f776e6572604482015290519081900360640190fd5b61071b81610814565b50565b3390565b600054610100900460ff168061073b575061073b6108b5565b80610749575060005460ff16155b6107845760405162461bcd60e51b815260040180806020018281038252602e8152602001806108e2602e913960400191505060405180910390fd5b600054610100900460ff161580156107af576000805460ff1961ff0019909116610100171660011790555b603380546001600160a01b0319166001600160a01b0384811691909117918290556040519116906000907f8be0079c531659141344cd1fd0a4f28419497f9722a3daafe3b4186f6b6457e0908290a38015610810576000805461ff00191690555b5050565b6001600160a01b0381166108595760405162461bcd60e51b81526004018080602001828103825260268152602001806108bc6026913960400191505060405180910390fd5b6033546040516001600160a01b038084169216907f8be0079c531659141344cd1fd0a4f28419497f9722a3daafe3b4186f6b6457e090600090a3603380546001600160a01b0319166001600160a01b0392909216919091179055565b303b159056fe4f776e61626c653a206e6577206f776e657220697320746865207a65726f2061646472657373436f6e747261637420696e7374616e63652068617320616c7265616479206265656e20696e697469616c697a6564a265627a7a7231582058ff9acd54a165be15341b299d8326c2dca6efb2b912df77f641b025058c7bc464736f6c634300050f0032",
  "source": "pragma solidity 0.5.15;\r\n\r\n\r\nimport \"./interfaces/IWhitelist.sol\";\r\nimport \"@openzeppelin/contracts-ethereum-package/contracts/ownership/Ownable.sol\";\r\n\r\n/**\r\n * @title whitelist implementation which manages KYC approvals for the org.\r\n * @dev modeled after ERC-1404\r\n */\r\ncontract Whitelist is IWhitelist, Ownable\r\n{\r\n  /**\r\n   * Emits when an operator KYC approves (or revokes) a trader.\r\n   */\r\n  event Approve(address indexed _trader, bool _isApproved);\r\n\r\n  mapping(address => bool) public approved;\r\n  address public dat;\r\n\r\n  /**\r\n   * @notice Called once to complete configuration for this contract.\r\n   * @dev Done with `initialize` instead of a constructor in order to support\r\n   * using this contract via an Upgradable Proxy.\r\n   */\r\n  function initialize(\r\n    address _dat\r\n  ) public\r\n  {\r\n    Ownable.initialize(msg.sender);\r\n    dat = _dat;\r\n\r\n    // Setting 0 to approved allows mint/burn actions\r\n    approved[address(0)] = true;\r\n  }\r\n\r\n  function detectTransferRestriction(\r\n    address _from,\r\n    address _to,\r\n    uint //_value (ignored)\r\n  ) public view returns(uint8)\r\n  {\r\n    if(approved[_from] && approved[_to])\r\n    {\r\n      // Transfer approved\r\n      return 0;\r\n    }\r\n\r\n    // Transfer denied\r\n    return 1;\r\n  }\r\n\r\n  function messageForTransferRestriction(\r\n    uint8 _restrictionCode\r\n  ) external pure\r\n    returns (string memory)\r\n  {\r\n    if(_restrictionCode == 0)\r\n    {\r\n      return \"SUCCESS\";\r\n    }\r\n    if(_restrictionCode == 1)\r\n    {\r\n      return \"DENIED\";\r\n    }\r\n    return \"UNKNOWN_ERROR\";\r\n  }\r\n\r\n  /**\r\n   * @notice Allows the owner of this contract to approve (or deny)\r\n   * a trader's account.\r\n   */\r\n  function approve(\r\n    address _trader,\r\n    bool _isApproved\r\n  ) external onlyOwner\r\n  {\r\n    require(msg.sender == owner(), \"OWNER_ONLY\");\r\n\r\n    approved[_trader] = _isApproved;\r\n    emit Approve(_trader, _isApproved);\r\n  }\r\n\r\n  /**\r\n   * @notice Called by the DAT contract before a transfer occurs.\r\n   * @dev This call will revert when the transfer is not authorized.\r\n   * This is a mutable call to allow additional data to be recorded,\r\n   * such as when the user aquired their tokens.\r\n   */\r\n  function authorizeTransfer(\r\n    address _from,\r\n    address _to,\r\n    uint _value,\r\n    bool _isSell\r\n  ) external\r\n  {\r\n    require(dat == msg.sender, \"CALL_VIA_DAT_ONLY\");\r\n    require(detectTransferRestriction(_from, _to, _value) == 0, \"TRANSFER_DENIED\");\r\n    // Future versions will add additional logic here\r\n  }\r\n}\r\n",
  "sourcePath": "D:/c-org/contracts/Whitelist.sol",
  "compiler": {
    "name": "solc",
    "version": "0.5.15+commit.6a57276f.Emscripten.clang"
  },
  "schemaVersion": "3.0.19",
  "updatedAt": "2020-01-10T22:34:33.112Z",
  "devdoc": {
    "details": "modeled after ERC-1404",
    "methods": {
      "authorizeTransfer(address,address,uint256,bool)": {
        "details": "This call will revert when the transfer is not authorized. This is a mutable call to allow additional data to be recorded, such as when the user aquired their tokens."
      },
      "initialize(address)": {
        "details": "Done with `initialize` instead of a constructor in order to support using this contract via an Upgradable Proxy."
      },
      "isOwner()": {
        "details": "Returns true if the caller is the current owner."
      },
      "owner()": {
        "details": "Returns the address of the current owner."
      },
      "renounceOwnership()": {
        "details": "Leaves the contract without owner. It will not be possible to call `onlyOwner` functions anymore. Can only be called by the current owner.     * > Note: Renouncing ownership will leave the contract without an owner, thereby removing any functionality that is only available to the owner."
      },
      "transferOwnership(address)": {
        "details": "Transfers ownership of the contract to a new account (`newOwner`). Can only be called by the current owner."
      }
    },
    "title": "whitelist implementation which manages KYC approvals for the org."
  },
  "userdoc": {
    "methods": {
      "approve(address,bool)": {
        "notice": "Allows the owner of this contract to approve (or deny) a trader's account."
      },
      "authorizeTransfer(address,address,uint256,bool)": {
        "notice": "Called by the DAT contract before a transfer occurs."
      },
      "initialize(address)": {
        "notice": "Called once to complete configuration for this contract."
      }
    }
  }
}