{
  "contractName": "Whitelist",
  "abi": [
    {
      "anonymous": false,
      "inputs": [
        {
          "indexed": true,
          "internalType": "address",
          "name": "_trader",
          "type": "address"
        },
        {
          "indexed": false,
          "internalType": "bool",
          "name": "_isApproved",
          "type": "bool"
        }
      ],
      "name": "Approve",
      "type": "event"
    },
    {
      "constant": true,
      "inputs": [
        {
          "internalType": "address",
          "name": "",
          "type": "address"
        }
      ],
      "name": "approved",
      "outputs": [
        {
          "internalType": "bool",
          "name": "",
          "type": "bool"
        }
      ],
      "payable": false,
      "stateMutability": "view",
      "type": "function"
    },
    {
      "constant": true,
      "inputs": [],
      "name": "dat",
      "outputs": [
        {
          "internalType": "address",
          "name": "",
          "type": "address"
        }
      ],
      "payable": false,
      "stateMutability": "view",
      "type": "function"
    },
    {
      "constant": true,
      "inputs": [],
      "name": "owner",
      "outputs": [
        {
          "internalType": "address",
          "name": "",
          "type": "address"
        }
      ],
      "payable": false,
      "stateMutability": "view",
      "type": "function"
    },
    {
      "constant": false,
      "inputs": [
        {
          "internalType": "address",
          "name": "_dat",
          "type": "address"
        }
      ],
      "name": "initialize",
      "outputs": [],
      "payable": false,
      "stateMutability": "nonpayable",
      "type": "function"
    },
    {
      "constant": true,
      "inputs": [
        {
          "internalType": "address",
          "name": "_from",
          "type": "address"
        },
        {
          "internalType": "address",
          "name": "_to",
          "type": "address"
        },
        {
          "internalType": "uint256",
          "name": "",
          "type": "uint256"
        }
      ],
      "name": "detectTransferRestriction",
      "outputs": [
        {
          "internalType": "uint8",
          "name": "",
          "type": "uint8"
        }
      ],
      "payable": false,
      "stateMutability": "view",
      "type": "function"
    },
    {
      "constant": true,
      "inputs": [
        {
          "internalType": "uint8",
          "name": "_restrictionCode",
          "type": "uint8"
        }
      ],
      "name": "messageForTransferRestriction",
      "outputs": [
        {
          "internalType": "string",
          "name": "",
          "type": "string"
        }
      ],
      "payable": false,
      "stateMutability": "pure",
      "type": "function"
    },
    {
      "constant": false,
      "inputs": [
        {
          "internalType": "address",
          "name": "_trader",
          "type": "address"
        },
        {
          "internalType": "bool",
          "name": "_isApproved",
          "type": "bool"
        }
      ],
      "name": "approve",
      "outputs": [],
      "payable": false,
      "stateMutability": "nonpayable",
      "type": "function"
    },
    {
      "constant": false,
      "inputs": [
        {
          "internalType": "address",
          "name": "_from",
          "type": "address"
        },
        {
          "internalType": "address",
          "name": "_to",
          "type": "address"
        },
        {
          "internalType": "uint256",
          "name": "_value",
          "type": "uint256"
        },
        {
          "internalType": "bool",
          "name": "_isSell",
          "type": "bool"
        }
      ],
      "name": "authorizeTransfer",
      "outputs": [],
      "payable": false,
      "stateMutability": "nonpayable",
      "type": "function"
    }
  ],
  "bytecode": "0x608060405234801561001057600080fd5b506105b9806100206000396000f3fe608060405234801561001057600080fd5b50600436106100885760003560e01c80638da5cb5b1161005b5780638da5cb5b146101b4578063c4d66de8146101bc578063d4ce1415146101e2578063d8b964e61461022e57610088565b806336dffedf1461008d5780633d140d21146100cd57806363eb963a146100fb5780637f4ab1dd1461011f575b600080fd5b6100cb600480360360808110156100a357600080fd5b506001600160a01b038135811691602081013590911690604081013590606001351515610268565b005b6100cb600480360360408110156100e357600080fd5b506001600160a01b0381351690602001351515610313565b6101036103bd565b604080516001600160a01b039092168252519081900360200190f35b61013f6004803603602081101561013557600080fd5b503560ff166103cc565b6040805160208082528351818301528351919283929083019185019080838360005b83811015610179578181015183820152602001610161565b50505050905090810190601f1680156101a65780820380516001836020036101000a031916815260200191505b509250505060405180910390f35b610103610454565b6100cb600480360360208110156101d257600080fd5b50356001600160a01b0316610463565b610218600480360360608110156101f857600080fd5b506001600160a01b03813581169160208101359091169060400135610517565b6040805160ff9092168252519081900360200190f35b6102546004803603602081101561024457600080fd5b50356001600160a01b031661056f565b604080519115158252519081900360200190f35b6001546001600160a01b031633146102bb576040805162461bcd60e51b815260206004820152601160248201527043414c4c5f5649415f4441545f4f4e4c5960781b604482015290519081900360640190fd5b6102c6848484610517565b60ff161561030d576040805162461bcd60e51b815260206004820152600f60248201526e1514905394d1915497d11153925151608a1b604482015290519081900360640190fd5b50505050565b6002546001600160a01b0316331461035f576040805162461bcd60e51b815260206004820152600a6024820152694f574e45525f4f4e4c5960b01b604482015290519081900360640190fd5b6001600160a01b03821660008181526020818152604091829020805460ff1916851515908117909155825190815291517f1f478f1e5aee36a892d86e821aba410dc0934cb0ebd0241dd7537083388454539281900390910190a25050565b6001546001600160a01b031681565b606060ff82166103fa57506040805180820190915260078152665355434345535360c81b602082015261044f565b8160ff1660011415610429575060408051808201909152600681526511115392515160d21b602082015261044f565b5060408051808201909152600d81526c2aa725a727aba72fa2a92927a960991b60208201525b919050565b6002546001600160a01b031681565b6002546001600160a01b0316156104b7576040805162461bcd60e51b81526020600482015260136024820152721053149150511657d253925512505312569151606a1b604482015290519081900360640190fd5b600180546001600160a01b039092166001600160a01b031992831617815560028054909216331790915560008080526020527fad3228b676f7d3cd4284a5443f17f1962b36e491b30a40b2405849e597ba5fb5805460ff19169091179055565b6001600160a01b03831660009081526020819052604081205460ff16801561055757506001600160a01b03831660009081526020819052604090205460ff165b1561056457506000610568565b5060015b9392505050565b60006020819052908152604090205460ff168156fea265627a7a723158208a443023f559940a0bd0934c7983ce2efe1a7cd17e3af042b23ad409acddc35664736f6c634300050e0032",
  "source": "pragma solidity 0.5.14;\n\n\nimport \"./interfaces/IWhitelist.sol\";\n\n/**\n * @title whitelist implementation which manages KYC approvals for the org.\n * @dev modeled after ERC-1404\n */\ncontract Whitelist is IWhitelist\n{\n  /**\n   * Emits when an operator KYC approves (or revokes) a trader.\n   */\n  event Approve(address indexed _trader, bool _isApproved);\n\n  mapping(address => bool) public approved;\n  address public dat;\n  address public owner;\n\n  /**\n   * @notice Called once to complete configuration for this contract.\n   * @dev Done with `initialize` instead of a constructor in order to support\n   * using this contract via an Upgradable Proxy.\n   */\n  function initialize(\n    address _dat\n  ) external\n  {\n    require(owner == address(0), \"ALREADY_INITIALIZED\");\n\n    dat = _dat;\n    owner = msg.sender;\n\n    // Setting 0 to approved allows mint/burn actions\n    approved[address(0)] = true;\n  }\n\n  function detectTransferRestriction(\n    address _from,\n    address _to,\n    uint //_value (ignored)\n  ) public view returns(uint8)\n  {\n    if(approved[_from] && approved[_to])\n    {\n      // Transfer approved\n      return 0;\n    }\n\n    // Transfer denied\n    return 1;\n  }\n\n  function messageForTransferRestriction(\n    uint8 _restrictionCode\n  ) external pure\n    returns (string memory)\n  {\n    if(_restrictionCode == 0)\n    {\n      return \"SUCCESS\";\n    }\n    if(_restrictionCode == 1)\n    {\n      return \"DENIED\";\n    }\n    return \"UNKNOWN_ERROR\";\n  }\n\n  /**\n   * @notice Allows the owner of this contract to approve (or deny)\n   * a trader's account.\n   */\n  function approve(\n    address _trader,\n    bool _isApproved\n  ) external\n  {\n    require(msg.sender == owner, \"OWNER_ONLY\");\n\n    approved[_trader] = _isApproved;\n    emit Approve(_trader, _isApproved);\n  }\n\n  /**\n   * @notice Called by the DAT contract before a transfer occurs.\n   * @dev This call will revert when the transfer is not authorized.\n   * This is a mutable call to allow additional data to be recorded,\n   * such as when the user aquired their tokens.\n   */\n  function authorizeTransfer(\n    address _from,\n    address _to,\n    uint _value,\n    bool _isSell\n  ) external\n  {\n    require(dat == msg.sender, \"CALL_VIA_DAT_ONLY\");\n    require(detectTransferRestriction(_from, _to, _value) == 0, \"TRANSFER_DENIED\");\n    // Future versions will add additional logic here\n  }\n}\n",
  "sourcePath": "/home/nick/git/c-org/contracts/Whitelist.sol",
  "compiler": {
    "name": "solc",
    "version": "0.5.14+commit.01f1aaa4.Emscripten.clang"
  },
  "schemaVersion": "3.0.19",
  "updatedAt": "2019-12-09T20:14:07.392Z",
  "devdoc": {
    "details": "modeled after ERC-1404",
    "methods": {
      "authorizeTransfer(address,address,uint256,bool)": {
        "details": "This call will revert when the transfer is not authorized. This is a mutable call to allow additional data to be recorded, such as when the user aquired their tokens."
      },
      "initialize(address)": {
        "details": "Done with `initialize` instead of a constructor in order to support using this contract via an Upgradable Proxy."
      }
    },
    "title": "whitelist implementation which manages KYC approvals for the org."
  },
  "userdoc": {
    "methods": {
      "approve(address,bool)": {
        "notice": "Allows the owner of this contract to approve (or deny) a trader's account."
      },
      "authorizeTransfer(address,address,uint256,bool)": {
        "notice": "Called by the DAT contract before a transfer occurs."
      },
      "initialize(address)": {
        "notice": "Called once to complete configuration for this contract."
      }
    }
  }
}